{
  "contractName": "IndexNFT",
  "abi": [
    {
      "inputs": [],
      "stateMutability": "nonpayable",
      "type": "constructor"
    },
    {
      "anonymous": false,
      "inputs": [
        {
          "indexed": true,
          "internalType": "address",
          "name": "owner",
          "type": "address"
        },
        {
          "indexed": true,
          "internalType": "address",
          "name": "approved",
          "type": "address"
        },
        {
          "indexed": true,
          "internalType": "uint256",
          "name": "tokenId",
          "type": "uint256"
        }
      ],
      "name": "Approval",
      "type": "event"
    },
    {
      "anonymous": false,
      "inputs": [
        {
          "indexed": true,
          "internalType": "address",
          "name": "owner",
          "type": "address"
        },
        {
          "indexed": true,
          "internalType": "address",
          "name": "operator",
          "type": "address"
        },
        {
          "indexed": false,
          "internalType": "bool",
          "name": "approved",
          "type": "bool"
        }
      ],
      "name": "ApprovalForAll",
      "type": "event"
    },
    {
      "anonymous": false,
      "inputs": [
        {
          "indexed": true,
          "internalType": "address",
          "name": "previousOwner",
          "type": "address"
        },
        {
          "indexed": true,
          "internalType": "address",
          "name": "newOwner",
          "type": "address"
        }
      ],
      "name": "OwnershipTransferred",
      "type": "event"
    },
    {
      "anonymous": false,
      "inputs": [
        {
          "indexed": true,
          "internalType": "address",
          "name": "from",
          "type": "address"
        },
        {
          "indexed": true,
          "internalType": "address",
          "name": "to",
          "type": "address"
        },
        {
          "indexed": true,
          "internalType": "uint256",
          "name": "tokenId",
          "type": "uint256"
        }
      ],
      "name": "Transfer",
      "type": "event"
    },
    {
      "inputs": [
        {
          "internalType": "address",
          "name": "to",
          "type": "address"
        },
        {
          "internalType": "uint256",
          "name": "tokenId",
          "type": "uint256"
        }
      ],
      "name": "approve",
      "outputs": [],
      "stateMutability": "nonpayable",
      "type": "function"
    },
    {
      "inputs": [
        {
          "internalType": "address",
          "name": "owner",
          "type": "address"
        }
      ],
      "name": "balanceOf",
      "outputs": [
        {
          "internalType": "uint256",
          "name": "",
          "type": "uint256"
        }
      ],
      "stateMutability": "view",
      "type": "function"
    },
    {
      "inputs": [
        {
          "internalType": "enum IndexNFT.Color",
          "name": "",
          "type": "uint8"
        }
      ],
      "name": "color_uri",
      "outputs": [
        {
          "internalType": "string",
          "name": "",
          "type": "string"
        }
      ],
      "stateMutability": "view",
      "type": "function"
    },
    {
      "inputs": [
        {
          "internalType": "uint256",
          "name": "tokenId",
          "type": "uint256"
        }
      ],
      "name": "getApproved",
      "outputs": [
        {
          "internalType": "address",
          "name": "",
          "type": "address"
        }
      ],
      "stateMutability": "view",
      "type": "function"
    },
    {
      "inputs": [
        {
          "internalType": "address",
          "name": "owner",
          "type": "address"
        },
        {
          "internalType": "address",
          "name": "operator",
          "type": "address"
        }
      ],
      "name": "isApprovedForAll",
      "outputs": [
        {
          "internalType": "bool",
          "name": "",
          "type": "bool"
        }
      ],
      "stateMutability": "view",
      "type": "function"
    },
    {
      "inputs": [],
      "name": "name",
      "outputs": [
        {
          "internalType": "string",
          "name": "",
          "type": "string"
        }
      ],
      "stateMutability": "view",
      "type": "function"
    },
    {
      "inputs": [],
      "name": "owner",
      "outputs": [
        {
          "internalType": "address",
          "name": "",
          "type": "address"
        }
      ],
      "stateMutability": "view",
      "type": "function"
    },
    {
      "inputs": [
        {
          "internalType": "uint256",
          "name": "tokenId",
          "type": "uint256"
        }
      ],
      "name": "ownerOf",
      "outputs": [
        {
          "internalType": "address",
          "name": "",
          "type": "address"
        }
      ],
      "stateMutability": "view",
      "type": "function"
    },
    {
      "inputs": [],
      "name": "renounceOwnership",
      "outputs": [],
      "stateMutability": "nonpayable",
      "type": "function"
    },
    {
      "inputs": [
        {
          "internalType": "address",
          "name": "from",
          "type": "address"
        },
        {
          "internalType": "address",
          "name": "to",
          "type": "address"
        },
        {
          "internalType": "uint256",
          "name": "tokenId",
          "type": "uint256"
        }
      ],
      "name": "safeTransferFrom",
      "outputs": [],
      "stateMutability": "nonpayable",
      "type": "function"
    },
    {
      "inputs": [
        {
          "internalType": "address",
          "name": "from",
          "type": "address"
        },
        {
          "internalType": "address",
          "name": "to",
          "type": "address"
        },
        {
          "internalType": "uint256",
          "name": "tokenId",
          "type": "uint256"
        },
        {
          "internalType": "bytes",
          "name": "_data",
          "type": "bytes"
        }
      ],
      "name": "safeTransferFrom",
      "outputs": [],
      "stateMutability": "nonpayable",
      "type": "function"
    },
    {
      "inputs": [
        {
          "internalType": "address",
          "name": "operator",
          "type": "address"
        },
        {
          "internalType": "bool",
          "name": "approved",
          "type": "bool"
        }
      ],
      "name": "setApprovalForAll",
      "outputs": [],
      "stateMutability": "nonpayable",
      "type": "function"
    },
    {
      "inputs": [],
      "name": "symbol",
      "outputs": [
        {
          "internalType": "string",
          "name": "",
          "type": "string"
        }
      ],
      "stateMutability": "view",
      "type": "function"
    },
    {
      "inputs": [
        {
          "internalType": "uint256",
          "name": "index",
          "type": "uint256"
        }
      ],
      "name": "tokenByIndex",
      "outputs": [
        {
          "internalType": "uint256",
          "name": "",
          "type": "uint256"
        }
      ],
      "stateMutability": "view",
      "type": "function"
    },
    {
      "inputs": [
        {
          "internalType": "address",
          "name": "owner",
          "type": "address"
        },
        {
          "internalType": "uint256",
          "name": "index",
          "type": "uint256"
        }
      ],
      "name": "tokenOfOwnerByIndex",
      "outputs": [
        {
          "internalType": "uint256",
          "name": "",
          "type": "uint256"
        }
      ],
      "stateMutability": "view",
      "type": "function"
    },
    {
      "inputs": [
        {
          "internalType": "uint256",
          "name": "",
          "type": "uint256"
        }
      ],
      "name": "token_color",
      "outputs": [
        {
          "internalType": "enum IndexNFT.Color",
          "name": "",
          "type": "uint8"
        }
      ],
      "stateMutability": "view",
      "type": "function"
    },
    {
      "inputs": [],
      "name": "totalSupply",
      "outputs": [
        {
          "internalType": "uint256",
          "name": "",
          "type": "uint256"
        }
      ],
      "stateMutability": "view",
      "type": "function"
    },
    {
      "inputs": [
        {
          "internalType": "address",
          "name": "from",
          "type": "address"
        },
        {
          "internalType": "address",
          "name": "to",
          "type": "address"
        },
        {
          "internalType": "uint256",
          "name": "tokenId",
          "type": "uint256"
        }
      ],
      "name": "transferFrom",
      "outputs": [],
      "stateMutability": "nonpayable",
      "type": "function"
    },
    {
      "inputs": [
        {
          "internalType": "address",
          "name": "newOwner",
          "type": "address"
        }
      ],
      "name": "transferOwnership",
      "outputs": [],
      "stateMutability": "nonpayable",
      "type": "function"
    },
    {
      "inputs": [
        {
          "internalType": "uint256",
          "name": "tokenId",
          "type": "uint256"
        },
        {
          "internalType": "bool",
          "name": "convertToStableCoin",
          "type": "bool"
        }
      ],
      "name": "burnNFT",
      "outputs": [],
      "stateMutability": "nonpayable",
      "type": "function"
    },
    {
      "inputs": [],
      "name": "mint",
      "outputs": [],
      "stateMutability": "nonpayable",
      "type": "function"
    },
    {
      "inputs": [
        {
          "internalType": "uint256",
          "name": "tokenId",
          "type": "uint256"
        }
      ],
      "name": "tokenURI",
      "outputs": [
        {
          "internalType": "string",
          "name": "",
          "type": "string"
        }
      ],
      "stateMutability": "view",
      "type": "function"
    },
    {
      "inputs": [
        {
          "internalType": "string[]",
          "name": "uris",
          "type": "string[]"
        }
      ],
      "name": "setTokenURIs",
      "outputs": [],
      "stateMutability": "nonpayable",
      "type": "function"
    },
    {
      "inputs": [
        {
          "internalType": "uint256",
          "name": "tokenId",
          "type": "uint256"
        },
        {
          "internalType": "enum IndexNFT.Color",
          "name": "color",
          "type": "uint8"
        }
      ],
      "name": "setTokenColor",
      "outputs": [],
      "stateMutability": "nonpayable",
      "type": "function"
    },
    {
      "inputs": [
        {
          "internalType": "bytes4",
          "name": "interfaceId",
          "type": "bytes4"
        }
      ],
      "name": "supportsInterface",
      "outputs": [
        {
          "internalType": "bool",
          "name": "",
          "type": "bool"
        }
      ],
      "stateMutability": "view",
      "type": "function"
    }
  ],
  "bytecode": "0x6080604052737a250d5630b4cf539739df2c5dacb4c659f2488d600e60006101000a81548173ffffffffffffffffffffffffffffffffffffffff021916908373ffffffffffffffffffffffffffffffffffffffff1602179055507361460874a7196d6a22d1ee4922473664b3e95270600f60006101000a81548173ffffffffffffffffffffffffffffffffffffffff021916908373ffffffffffffffffffffffffffffffffffffffff16021790555073c011a73ee8576fb46f5e1c5751ca3b9fe0af2a6f601060006101000a81548173ffffffffffffffffffffffffffffffffffffffff021916908373ffffffffffffffffffffffffffffffffffffffff160217905550734f96fe3b7a6cf9725f59d353f723c1bdb64ca6aa601160006101000a81548173ffffffffffffffffffffffffffffffffffffffff021916908373ffffffffffffffffffffffffffffffffffffffff1602179055503480156200016557600080fd5b506040518060400160405280600c81526020017f43727970746f20496e64657800000000000000000000000000000000000000008152506040518060400160405280600281526020017f43490000000000000000000000000000000000000000000000000000000000008152508160009080519060200190620001ea929190620002fa565b50806001908051906020019062000203929190620002fa565b505050620002266200021a6200022c60201b60201c565b6200023460201b60201c565b6200040f565b600033905090565b6000600a60009054906101000a900473ffffffffffffffffffffffffffffffffffffffff16905081600a60006101000a81548173ffffffffffffffffffffffffffffffffffffffff021916908373ffffffffffffffffffffffffffffffffffffffff1602179055508173ffffffffffffffffffffffffffffffffffffffff168173ffffffffffffffffffffffffffffffffffffffff167f8be0079c531659141344cd1fd0a4f28419497f9722a3daafe3b4186f6b6457e060405160405180910390a35050565b8280546200030890620003d9565b90600052602060002090601f0160209004810192826200032c576000855562000378565b82601f106200034757805160ff191683800117855562000378565b8280016001018555821562000378579182015b82811115620003775782518255916020019190600101906200035a565b5b5090506200038791906200038b565b5090565b5b80821115620003a65760008160009055506001016200038c565b5090565b7f4e487b7100000000000000000000000000000000000000000000000000000000600052602260045260246000fd5b60006002820490506001821680620003f257607f821691505b60208210811415620004095762000408620003aa565b5b50919050565b614e7e806200041f6000396000f3fe608060405234801561001057600080fd5b50600436106101725760003560e01c80636352211e116100de57806395d89b4111610097578063c87b56dd11610071578063c87b56dd14610433578063cc81fd1d14610463578063e985e9c514610493578063f2fde38b146104c357610172565b806395d89b41146103dd578063a22cb465146103fb578063b88d4fde1461041757610172565b80636352211e1461031d5780636f2471721461034d57806370a0823114610369578063715018a6146103995780637505c650146103a35780638da5cb5b146103bf57610172565b806318160ddd1161013057806318160ddd1461023757806323b872dd14610255578063259b5356146102715780632f745c59146102a157806342842e0e146102d15780634f6ccce7146102ed57610172565b8062c07ffc1461017757806301ffc9a71461019357806306fdde03146101c3578063081812fc146101e1578063095ea7b3146102115780631249c58b1461022d575b600080fd5b610191600480360381019061018c9190613604565b6104df565b005b6101ad60048036038101906101a891906136a5565b6106fc565b6040516101ba91906136ed565b60405180910390f35b6101cb61070e565b6040516101d89190613790565b60405180910390f35b6101fb60048036038101906101f691906137e8565b6107a0565b6040516102089190613856565b60405180910390f35b61022b6004803603810190610226919061389d565b610825565b005b61023561093d565b005b61023f610be7565b60405161024c91906138ec565b60405180910390f35b61026f600480360381019061026a9190613907565b610bf4565b005b61028b6004803603810190610286919061397f565b610c54565b6040516102989190613790565b60405180910390f35b6102bb60048036038101906102b6919061389d565b610cf4565b6040516102c891906138ec565b60405180910390f35b6102eb60048036038101906102e69190613907565b610d99565b005b610307600480360381019061030291906137e8565b610db9565b60405161031491906138ec565b60405180910390f35b610337600480360381019061033291906137e8565b610e2a565b6040516103449190613856565b60405180910390f35b610367600480360381019061036291906139ac565b610edc565b005b610383600480360381019061037e91906139ec565b610f93565b60405161039091906138ec565b60405180910390f35b6103a161104b565b005b6103bd60048036038101906103b89190613a45565b6110d3565b005b6103c76114c2565b6040516103d49190613856565b60405180910390f35b6103e56114ec565b6040516103f29190613790565b60405180910390f35b61041560048036038101906104109190613a85565b61157e565b005b610431600480360381019061042c9190613b66565b611594565b005b61044d600480360381019061044891906137e8565b6115f6565b60405161045a9190613790565b60405180910390f35b61047d600480360381019061047891906137e8565b6118e4565b60405161048a9190613c60565b60405180910390f35b6104ad60048036038101906104a89190613c7b565b611904565b6040516104ba91906136ed565b60405180910390f35b6104dd60048036038101906104d891906139ec565b611998565b005b6104e7611a90565b73ffffffffffffffffffffffffffffffffffffffff166105056114c2565b73ffffffffffffffffffffffffffffffffffffffff161461055b576040517f08c379a000000000000000000000000000000000000000000000000000000000815260040161055290613d07565b60405180910390fd5b8060008151811061056f5761056e613d27565b5b6020026020010151600d600080600381111561058e5761058d613be9565b5b60038111156105a05761059f613be9565b5b815260200190815260200160002090805190602001906105c1929190613321565b50806001815181106105d6576105d5613d27565b5b6020026020010151600d6000600160038111156105f6576105f5613be9565b5b600381111561060857610607613be9565b5b81526020019081526020016000209080519060200190610629929190613321565b508060028151811061063e5761063d613d27565b5b6020026020010151600d60006002600381111561065e5761065d613be9565b5b60038111156106705761066f613be9565b5b81526020019081526020016000209080519060200190610691929190613321565b50806003815181106106a6576106a5613d27565b5b6020026020010151600d60006003808111156106c5576106c4613be9565b5b60038111156106d7576106d6613be9565b5b815260200190815260200160002090805190602001906106f8929190613321565b5050565b600061070782611a98565b9050919050565b60606000805461071d90613d85565b80601f016020809104026020016040519081016040528092919081815260200182805461074990613d85565b80156107965780601f1061076b57610100808354040283529160200191610796565b820191906000526020600020905b81548152906001019060200180831161077957829003601f168201915b5050505050905090565b60006107ab82611b12565b6107ea576040517f08c379a00000000000000000000000000000000000000000000000000000000081526004016107e190613e29565b60405180910390fd5b6004600083815260200190815260200160002060009054906101000a900473ffffffffffffffffffffffffffffffffffffffff169050919050565b600061083082610e2a565b90508073ffffffffffffffffffffffffffffffffffffffff168373ffffffffffffffffffffffffffffffffffffffff1614156108a1576040517f08c379a000000000000000000000000000000000000000000000000000000000815260040161089890613ebb565b60405180910390fd5b8073ffffffffffffffffffffffffffffffffffffffff166108c0611a90565b73ffffffffffffffffffffffffffffffffffffffff1614806108ef57506108ee816108e9611a90565b611904565b5b61092e576040517f08c379a000000000000000000000000000000000000000000000000000000000815260040161092590613f4d565b60405180910390fd5b6109388383611b7e565b505050565b610945611a90565b73ffffffffffffffffffffffffffffffffffffffff166109636114c2565b73ffffffffffffffffffffffffffffffffffffffff16146109b9576040517f08c379a00000000000000000000000000000000000000000000000000000000081526004016109b090613d07565b60405180910390fd5b60016109c3610be7565b6109cd9190613f9c565b66b1a2bc2ec500006109df9190613ff2565b600f60009054906101000a900473ffffffffffffffffffffffffffffffffffffffff1673ffffffffffffffffffffffffffffffffffffffff166370a08231306040518263ffffffff1660e01b8152600401610a3a9190613856565b602060405180830381865afa158015610a57573d6000803e3d6000fd5b505050506040513d601f19601f82011682018060405250810190610a7b9190614061565b1015610abc576040517f08c379a0000000000000000000000000000000000000000000000000000000008152600401610ab3906140da565b60405180910390fd5b6001610ac6610be7565b610ad09190613f9c565b66b1a2bc2ec50000610ae29190613ff2565b601060009054906101000a900473ffffffffffffffffffffffffffffffffffffffff1673ffffffffffffffffffffffffffffffffffffffff166370a08231306040518263ffffffff1660e01b8152600401610b3d9190613856565b602060405180830381865afa158015610b5a573d6000803e3d6000fd5b505050506040513d601f19601f82011682018060405250810190610b7e9190614061565b1015610bbf576040517f08c379a0000000000000000000000000000000000000000000000000000000008152600401610bb690614146565b60405180910390fd5b610bcb33600b54611c37565b6001600b6000828254610bde9190613f9c565b92505081905550565b6000600880549050905090565b610c05610bff611a90565b82611e05565b610c44576040517f08c379a0000000000000000000000000000000000000000000000000000000008152600401610c3b906141d8565b60405180910390fd5b610c4f838383611ee3565b505050565b600d6020528060005260406000206000915090508054610c7390613d85565b80601f0160208091040260200160405190810160405280929190818152602001828054610c9f90613d85565b8015610cec5780601f10610cc157610100808354040283529160200191610cec565b820191906000526020600020905b815481529060010190602001808311610ccf57829003601f168201915b505050505081565b6000610cff83610f93565b8210610d40576040517f08c379a0000000000000000000000000000000000000000000000000000000008152600401610d379061426a565b60405180910390fd5b600660008473ffffffffffffffffffffffffffffffffffffffff1673ffffffffffffffffffffffffffffffffffffffff168152602001908152602001600020600083815260200190815260200160002054905092915050565b610db483838360405180602001604052806000815250611594565b505050565b6000610dc3610be7565b8210610e04576040517f08c379a0000000000000000000000000000000000000000000000000000000008152600401610dfb906142fc565b60405180910390fd5b60088281548110610e1857610e17613d27565b5b90600052602060002001549050919050565b6000806002600084815260200190815260200160002060009054906101000a900473ffffffffffffffffffffffffffffffffffffffff169050600073ffffffffffffffffffffffffffffffffffffffff168173ffffffffffffffffffffffffffffffffffffffff161415610ed3576040517f08c379a0000000000000000000000000000000000000000000000000000000008152600401610eca9061438e565b60405180910390fd5b80915050919050565b813373ffffffffffffffffffffffffffffffffffffffff16610efd82610e2a565b73ffffffffffffffffffffffffffffffffffffffff1614610f53576040517f08c379a0000000000000000000000000000000000000000000000000000000008152600401610f4a906143fa565b60405180910390fd5b81600c600085815260200190815260200160002060006101000a81548160ff02191690836003811115610f8957610f88613be9565b5b0217905550505050565b60008073ffffffffffffffffffffffffffffffffffffffff168273ffffffffffffffffffffffffffffffffffffffff161415611004576040517f08c379a0000000000000000000000000000000000000000000000000000000008152600401610ffb9061448c565b60405180910390fd5b600360008373ffffffffffffffffffffffffffffffffffffffff1673ffffffffffffffffffffffffffffffffffffffff168152602001908152602001600020549050919050565b611053611a90565b73ffffffffffffffffffffffffffffffffffffffff166110716114c2565b73ffffffffffffffffffffffffffffffffffffffff16146110c7576040517f08c379a00000000000000000000000000000000000000000000000000000000081526004016110be90613d07565b60405180910390fd5b6110d1600061213f565b565b813373ffffffffffffffffffffffffffffffffffffffff166110f482610e2a565b73ffffffffffffffffffffffffffffffffffffffff161461114a576040517f08c379a0000000000000000000000000000000000000000000000000000000008152600401611141906143fa565b60405180910390fd5b611152610be7565b66b1a2bc2ec500006111649190613ff2565b600f60009054906101000a900473ffffffffffffffffffffffffffffffffffffffff1673ffffffffffffffffffffffffffffffffffffffff166370a08231306040518263ffffffff1660e01b81526004016111bf9190613856565b602060405180830381865afa1580156111dc573d6000803e3d6000fd5b505050506040513d601f19601f820116820180604052508101906112009190614061565b1015611241576040517f08c379a0000000000000000000000000000000000000000000000000000000008152600401611238906140da565b60405180910390fd5b611249610be7565b66b1a2bc2ec5000061125b9190613ff2565b601060009054906101000a900473ffffffffffffffffffffffffffffffffffffffff1673ffffffffffffffffffffffffffffffffffffffff166370a08231306040518263ffffffff1660e01b81526004016112b69190613856565b602060405180830381865afa1580156112d3573d6000803e3d6000fd5b505050506040513d601f19601f820116820180604052508101906112f79190614061565b1015611338576040517f08c379a000000000000000000000000000000000000000000000000000000000815260040161132f90614146565b60405180910390fd5b811561135357611346612205565b61134e6125a1565b6114b4565b600f60009054906101000a900473ffffffffffffffffffffffffffffffffffffffff1673ffffffffffffffffffffffffffffffffffffffff1663a9059cbb61139a85610e2a565b66b1a2bc2ec500006040518363ffffffff1660e01b81526004016113bf9291906144ac565b6020604051808303816000875af11580156113de573d6000803e3d6000fd5b505050506040513d601f19601f8201168201806040525081019061140291906144ea565b50601060009054906101000a900473ffffffffffffffffffffffffffffffffffffffff1673ffffffffffffffffffffffffffffffffffffffff1663a9059cbb61144a85610e2a565b66b1a2bc2ec500006040518363ffffffff1660e01b815260040161146f9291906144ac565b6020604051808303816000875af115801561148e573d6000803e3d6000fd5b505050506040513d601f19601f820116820180604052508101906114b291906144ea565b505b6114bd83612931565b505050565b6000600a60009054906101000a900473ffffffffffffffffffffffffffffffffffffffff16905090565b6060600180546114fb90613d85565b80601f016020809104026020016040519081016040528092919081815260200182805461152790613d85565b80156115745780601f1061154957610100808354040283529160200191611574565b820191906000526020600020905b81548152906001019060200180831161155757829003601f168201915b5050505050905090565b611590611589611a90565b8383612a42565b5050565b6115a561159f611a90565b83611e05565b6115e4576040517f08c379a00000000000000000000000000000000000000000000000000000000081526004016115db906141d8565b60405180910390fd5b6115f084848484612baf565b50505050565b606061160182611b12565b611640576040517f08c379a000000000000000000000000000000000000000000000000000000000815260040161163790614563565b60405180910390fd5b6000600d6000600c600086815260200190815260200160002060009054906101000a900460ff16600381111561167957611678613be9565b5b600381111561168b5761168a613be9565b5b81526020019081526020016000206040516020016116a99190614622565b6040516020818303038152906040525111156117a657600d6000600c600085815260200190815260200160002060009054906101000a900460ff1660038111156116f6576116f5613be9565b5b600381111561170857611707613be9565b5b8152602001908152602001600020805461172190613d85565b80601f016020809104026020016040519081016040528092919081815260200182805461174d90613d85565b801561179a5780601f1061176f5761010080835404028352916020019161179a565b820191906000526020600020905b81548152906001019060200180831161177d57829003601f168201915b505050505090506118df565b6000600d60008060038111156117bf576117be613be9565b5b60038111156117d1576117d0613be9565b5b81526020019081526020016000206040516020016117ef9190614622565b6040516020818303038152906040525111156118cc57600d600080600381111561181c5761181b613be9565b5b600381111561182e5761182d613be9565b5b8152602001908152602001600020805461184790613d85565b80601f016020809104026020016040519081016040528092919081815260200182805461187390613d85565b80156118c05780601f10611895576101008083540402835291602001916118c0565b820191906000526020600020905b8154815290600101906020018083116118a357829003601f168201915b505050505090506118df565b6040518060200160405280600081525090505b919050565b600c6020528060005260406000206000915054906101000a900460ff1681565b6000600560008473ffffffffffffffffffffffffffffffffffffffff1673ffffffffffffffffffffffffffffffffffffffff16815260200190815260200160002060008373ffffffffffffffffffffffffffffffffffffffff1673ffffffffffffffffffffffffffffffffffffffff16815260200190815260200160002060009054906101000a900460ff16905092915050565b6119a0611a90565b73ffffffffffffffffffffffffffffffffffffffff166119be6114c2565b73ffffffffffffffffffffffffffffffffffffffff1614611a14576040517f08c379a0000000000000000000000000000000000000000000000000000000008152600401611a0b90613d07565b60405180910390fd5b600073ffffffffffffffffffffffffffffffffffffffff168173ffffffffffffffffffffffffffffffffffffffff161415611a84576040517f08c379a0000000000000000000000000000000000000000000000000000000008152600401611a7b906146ab565b60405180910390fd5b611a8d8161213f565b50565b600033905090565b60007f780e9d63000000000000000000000000000000000000000000000000000000007bffffffffffffffffffffffffffffffffffffffffffffffffffffffff1916827bffffffffffffffffffffffffffffffffffffffffffffffffffffffff19161480611b0b5750611b0a82612c0b565b5b9050919050565b60008073ffffffffffffffffffffffffffffffffffffffff166002600084815260200190815260200160002060009054906101000a900473ffffffffffffffffffffffffffffffffffffffff1673ffffffffffffffffffffffffffffffffffffffff1614159050919050565b816004600083815260200190815260200160002060006101000a81548173ffffffffffffffffffffffffffffffffffffffff021916908373ffffffffffffffffffffffffffffffffffffffff160217905550808273ffffffffffffffffffffffffffffffffffffffff16611bf183610e2a565b73ffffffffffffffffffffffffffffffffffffffff167f8c5be1e5ebec7d5bd14f71427d1e84f3dd0314c0f7b2291e5b200ac8c7c3b92560405160405180910390a45050565b600073ffffffffffffffffffffffffffffffffffffffff168273ffffffffffffffffffffffffffffffffffffffff161415611ca7576040517f08c379a0000000000000000000000000000000000000000000000000000000008152600401611c9e90614717565b60405180910390fd5b611cb081611b12565b15611cf0576040517f08c379a0000000000000000000000000000000000000000000000000000000008152600401611ce790614783565b60405180910390fd5b611cfc60008383612ced565b6001600360008473ffffffffffffffffffffffffffffffffffffffff1673ffffffffffffffffffffffffffffffffffffffff1681526020019081526020016000206000828254611d4c9190613f9c565b92505081905550816002600083815260200190815260200160002060006101000a81548173ffffffffffffffffffffffffffffffffffffffff021916908373ffffffffffffffffffffffffffffffffffffffff160217905550808273ffffffffffffffffffffffffffffffffffffffff16600073ffffffffffffffffffffffffffffffffffffffff167fddf252ad1be2c89b69c2b068fc378daa952ba7f163c4a11628f55a4df523b3ef60405160405180910390a45050565b6000611e1082611b12565b611e4f576040517f08c379a0000000000000000000000000000000000000000000000000000000008152600401611e4690614815565b60405180910390fd5b6000611e5a83610e2a565b90508073ffffffffffffffffffffffffffffffffffffffff168473ffffffffffffffffffffffffffffffffffffffff161480611ec957508373ffffffffffffffffffffffffffffffffffffffff16611eb1846107a0565b73ffffffffffffffffffffffffffffffffffffffff16145b80611eda5750611ed98185611904565b5b91505092915050565b8273ffffffffffffffffffffffffffffffffffffffff16611f0382610e2a565b73ffffffffffffffffffffffffffffffffffffffff1614611f59576040517f08c379a0000000000000000000000000000000000000000000000000000000008152600401611f50906148a7565b60405180910390fd5b600073ffffffffffffffffffffffffffffffffffffffff168273ffffffffffffffffffffffffffffffffffffffff161415611fc9576040517f08c379a0000000000000000000000000000000000000000000000000000000008152600401611fc090614939565b60405180910390fd5b611fd4838383612ced565b611fdf600082611b7e565b6001600360008573ffffffffffffffffffffffffffffffffffffffff1673ffffffffffffffffffffffffffffffffffffffff168152602001908152602001600020600082825461202f9190614959565b925050819055506001600360008473ffffffffffffffffffffffffffffffffffffffff1673ffffffffffffffffffffffffffffffffffffffff16815260200190815260200160002060008282546120869190613f9c565b92505081905550816002600083815260200190815260200160002060006101000a81548173ffffffffffffffffffffffffffffffffffffffff021916908373ffffffffffffffffffffffffffffffffffffffff160217905550808273ffffffffffffffffffffffffffffffffffffffff168473ffffffffffffffffffffffffffffffffffffffff167fddf252ad1be2c89b69c2b068fc378daa952ba7f163c4a11628f55a4df523b3ef60405160405180910390a4505050565b6000600a60009054906101000a900473ffffffffffffffffffffffffffffffffffffffff16905081600a60006101000a81548173ffffffffffffffffffffffffffffffffffffffff021916908373ffffffffffffffffffffffffffffffffffffffff1602179055508173ffffffffffffffffffffffffffffffffffffffff168173ffffffffffffffffffffffffffffffffffffffff167f8be0079c531659141344cd1fd0a4f28419497f9722a3daafe3b4186f6b6457e060405160405180910390a35050565b6000600367ffffffffffffffff811115612222576122216133ee565b5b6040519080825280602002602001820160405280156122505781602001602082028036833780820191505090505b509050601060009054906101000a900473ffffffffffffffffffffffffffffffffffffffff168160008151811061228a57612289613d27565b5b602002602001019073ffffffffffffffffffffffffffffffffffffffff16908173ffffffffffffffffffffffffffffffffffffffff1681525050600e60009054906101000a900473ffffffffffffffffffffffffffffffffffffffff1673ffffffffffffffffffffffffffffffffffffffff1663ad5c46486040518163ffffffff1660e01b8152600401602060405180830381865afa158015612331573d6000803e3d6000fd5b505050506040513d601f19601f8201168201806040525081019061235591906149a2565b8160018151811061236957612368613d27565b5b602002602001019073ffffffffffffffffffffffffffffffffffffffff16908173ffffffffffffffffffffffffffffffffffffffff1681525050601160009054906101000a900473ffffffffffffffffffffffffffffffffffffffff16816002815181106123da576123d9613d27565b5b602002602001019073ffffffffffffffffffffffffffffffffffffffff16908173ffffffffffffffffffffffffffffffffffffffff1681525050601060009054906101000a900473ffffffffffffffffffffffffffffffffffffffff1673ffffffffffffffffffffffffffffffffffffffff1663095ea7b3600e60009054906101000a900473ffffffffffffffffffffffffffffffffffffffff1666b1a2bc2ec500006040518363ffffffff1660e01b815260040161249a9291906144ac565b6020604051808303816000875af11580156124b9573d6000803e3d6000fd5b505050506040513d601f19601f820116820180604052508101906124dd91906144ea565b50600e60009054906101000a900473ffffffffffffffffffffffffffffffffffffffff1673ffffffffffffffffffffffffffffffffffffffff166338ed173966b1a2bc2ec50000600084336014426125359190613f9c565b6040518663ffffffff1660e01b8152600401612555959493929190614ad2565b6000604051808303816000875af1158015612574573d6000803e3d6000fd5b505050506040513d6000823e3d601f19601f8201168201806040525081019061259d9190614bef565b5050565b6000600367ffffffffffffffff8111156125be576125bd6133ee565b5b6040519080825280602002602001820160405280156125ec5781602001602082028036833780820191505090505b509050600f60009054906101000a900473ffffffffffffffffffffffffffffffffffffffff168160008151811061262657612625613d27565b5b602002602001019073ffffffffffffffffffffffffffffffffffffffff16908173ffffffffffffffffffffffffffffffffffffffff1681525050600e60009054906101000a900473ffffffffffffffffffffffffffffffffffffffff1673ffffffffffffffffffffffffffffffffffffffff1663ad5c46486040518163ffffffff1660e01b8152600401602060405180830381865afa1580156126cd573d6000803e3d6000fd5b505050506040513d601f19601f820116820180604052508101906126f191906149a2565b8160018151811061270557612704613d27565b5b602002602001019073ffffffffffffffffffffffffffffffffffffffff16908173ffffffffffffffffffffffffffffffffffffffff1681525050601160009054906101000a900473ffffffffffffffffffffffffffffffffffffffff168160028151811061277657612775613d27565b5b602002602001019073ffffffffffffffffffffffffffffffffffffffff16908173ffffffffffffffffffffffffffffffffffffffff1681525050600f60009054906101000a900473ffffffffffffffffffffffffffffffffffffffff1673ffffffffffffffffffffffffffffffffffffffff1663095ea7b3600e60009054906101000a900473ffffffffffffffffffffffffffffffffffffffff1666b1a2bc2ec500006040518363ffffffff1660e01b81526004016128369291906144ac565b6020604051808303816000875af1158015612855573d6000803e3d6000fd5b505050506040513d601f19601f8201168201806040525081019061287991906144ea565b50600e60009054906101000a900473ffffffffffffffffffffffffffffffffffffffff1673ffffffffffffffffffffffffffffffffffffffff166338ed173966b1a2bc2ec5000060008433426040518663ffffffff1660e01b81526004016128e5959493929190614ad2565b6000604051808303816000875af1158015612904573d6000803e3d6000fd5b505050506040513d6000823e3d601f19601f8201168201806040525081019061292d9190614bef565b5050565b600061293c82610e2a565b905061294a81600084612ced565b612955600083611b7e565b6001600360008373ffffffffffffffffffffffffffffffffffffffff1673ffffffffffffffffffffffffffffffffffffffff16815260200190815260200160002060008282546129a59190614959565b925050819055506002600083815260200190815260200160002060006101000a81549073ffffffffffffffffffffffffffffffffffffffff021916905581600073ffffffffffffffffffffffffffffffffffffffff168273ffffffffffffffffffffffffffffffffffffffff167fddf252ad1be2c89b69c2b068fc378daa952ba7f163c4a11628f55a4df523b3ef60405160405180910390a45050565b8173ffffffffffffffffffffffffffffffffffffffff168373ffffffffffffffffffffffffffffffffffffffff161415612ab1576040517f08c379a0000000000000000000000000000000000000000000000000000000008152600401612aa890614c84565b60405180910390fd5b80600560008573ffffffffffffffffffffffffffffffffffffffff1673ffffffffffffffffffffffffffffffffffffffff16815260200190815260200160002060008473ffffffffffffffffffffffffffffffffffffffff1673ffffffffffffffffffffffffffffffffffffffff16815260200190815260200160002060006101000a81548160ff0219169083151502179055508173ffffffffffffffffffffffffffffffffffffffff168373ffffffffffffffffffffffffffffffffffffffff167f17307eab39ab6107e8899845ad3d59bd9653f200f220920489ca2b5937696c3183604051612ba291906136ed565b60405180910390a3505050565b612bba848484611ee3565b612bc684848484612cfd565b612c05576040517f08c379a0000000000000000000000000000000000000000000000000000000008152600401612bfc90614d16565b60405180910390fd5b50505050565b60007f80ac58cd000000000000000000000000000000000000000000000000000000007bffffffffffffffffffffffffffffffffffffffffffffffffffffffff1916827bffffffffffffffffffffffffffffffffffffffffffffffffffffffff19161480612cd657507f5b5e139f000000000000000000000000000000000000000000000000000000007bffffffffffffffffffffffffffffffffffffffffffffffffffffffff1916827bffffffffffffffffffffffffffffffffffffffffffffffffffffffff1916145b80612ce65750612ce582612e85565b5b9050919050565b612cf8838383612eef565b505050565b6000612d1e8473ffffffffffffffffffffffffffffffffffffffff16613003565b15612e78578373ffffffffffffffffffffffffffffffffffffffff1663150b7a02612d47611a90565b8786866040518563ffffffff1660e01b8152600401612d699493929190614d8b565b6020604051808303816000875af1925050508015612da557506040513d601f19601f82011682018060405250810190612da29190614dec565b60015b612e28573d8060008114612dd5576040519150601f19603f3d011682016040523d82523d6000602084013e612dda565b606091505b50600081511415612e20576040517f08c379a0000000000000000000000000000000000000000000000000000000008152600401612e1790614d16565b60405180910390fd5b805181602001fd5b63150b7a0260e01b7bffffffffffffffffffffffffffffffffffffffffffffffffffffffff1916817bffffffffffffffffffffffffffffffffffffffffffffffffffffffff191614915050612e7d565b600190505b949350505050565b60007f01ffc9a7000000000000000000000000000000000000000000000000000000007bffffffffffffffffffffffffffffffffffffffffffffffffffffffff1916827bffffffffffffffffffffffffffffffffffffffffffffffffffffffff1916149050919050565b612efa838383613016565b600073ffffffffffffffffffffffffffffffffffffffff168373ffffffffffffffffffffffffffffffffffffffff161415612f3d57612f388161301b565b612f7c565b8173ffffffffffffffffffffffffffffffffffffffff168373ffffffffffffffffffffffffffffffffffffffff1614612f7b57612f7a8382613064565b5b5b600073ffffffffffffffffffffffffffffffffffffffff168273ffffffffffffffffffffffffffffffffffffffff161415612fbf57612fba816131d1565b612ffe565b8273ffffffffffffffffffffffffffffffffffffffff168273ffffffffffffffffffffffffffffffffffffffff1614612ffd57612ffc82826132a2565b5b5b505050565b600080823b905060008111915050919050565b505050565b6008805490506009600083815260200190815260200160002081905550600881908060018154018082558091505060019003906000526020600020016000909190919091505550565b6000600161307184610f93565b61307b9190614959565b9050600060076000848152602001908152602001600020549050818114613160576000600660008673ffffffffffffffffffffffffffffffffffffffff1673ffffffffffffffffffffffffffffffffffffffff168152602001908152602001600020600084815260200190815260200160002054905080600660008773ffffffffffffffffffffffffffffffffffffffff1673ffffffffffffffffffffffffffffffffffffffff168152602001908152602001600020600084815260200190815260200160002081905550816007600083815260200190815260200160002081905550505b6007600084815260200190815260200160002060009055600660008573ffffffffffffffffffffffffffffffffffffffff1673ffffffffffffffffffffffffffffffffffffffff16815260200190815260200160002060008381526020019081526020016000206000905550505050565b600060016008805490506131e59190614959565b905060006009600084815260200190815260200160002054905060006008838154811061321557613214613d27565b5b90600052602060002001549050806008838154811061323757613236613d27565b5b90600052602060002001819055508160096000838152602001908152602001600020819055506009600085815260200190815260200160002060009055600880548061328657613285614e19565b5b6001900381819060005260206000200160009055905550505050565b60006132ad83610f93565b905081600660008573ffffffffffffffffffffffffffffffffffffffff1673ffffffffffffffffffffffffffffffffffffffff168152602001908152602001600020600083815260200190815260200160002081905550806007600084815260200190815260200160002081905550505050565b82805461332d90613d85565b90600052602060002090601f01602090048101928261334f5760008555613396565b82601f1061336857805160ff1916838001178555613396565b82800160010185558215613396579182015b8281111561339557825182559160200191906001019061337a565b5b5090506133a391906133a7565b5090565b5b808211156133c05760008160009055506001016133a8565b5090565b6000604051905090565b600080fd5b600080fd5b600080fd5b6000601f19601f8301169050919050565b7f4e487b7100000000000000000000000000000000000000000000000000000000600052604160045260246000fd5b613426826133dd565b810181811067ffffffffffffffff82111715613445576134446133ee565b5b80604052505050565b60006134586133c4565b9050613464828261341d565b919050565b600067ffffffffffffffff821115613484576134836133ee565b5b602082029050602081019050919050565b600080fd5b600080fd5b600067ffffffffffffffff8211156134ba576134b96133ee565b5b6134c3826133dd565b9050602081019050919050565b82818337600083830152505050565b60006134f26134ed8461349f565b61344e565b90508281526020810184848401111561350e5761350d61349a565b5b6135198482856134d0565b509392505050565b600082601f830112613536576135356133d8565b5b81356135468482602086016134df565b91505092915050565b600061356261355d84613469565b61344e565b9050808382526020820190506020840283018581111561358557613584613495565b5b835b818110156135cc57803567ffffffffffffffff8111156135aa576135a96133d8565b5b8086016135b78982613521565b85526020850194505050602081019050613587565b5050509392505050565b600082601f8301126135eb576135ea6133d8565b5b81356135fb84826020860161354f565b91505092915050565b60006020828403121561361a576136196133ce565b5b600082013567ffffffffffffffff811115613638576136376133d3565b5b613644848285016135d6565b91505092915050565b60007fffffffff0000000000000000000000000000000000000000000000000000000082169050919050565b6136828161364d565b811461368d57600080fd5b50565b60008135905061369f81613679565b92915050565b6000602082840312156136bb576136ba6133ce565b5b60006136c984828501613690565b91505092915050565b60008115159050919050565b6136e7816136d2565b82525050565b600060208201905061370260008301846136de565b92915050565b600081519050919050565b600082825260208201905092915050565b60005b83811015613742578082015181840152602081019050613727565b83811115613751576000848401525b50505050565b600061376282613708565b61376c8185613713565b935061377c818560208601613724565b613785816133dd565b840191505092915050565b600060208201905081810360008301526137aa8184613757565b905092915050565b6000819050919050565b6137c5816137b2565b81146137d057600080fd5b50565b6000813590506137e2816137bc565b92915050565b6000602082840312156137fe576137fd6133ce565b5b600061380c848285016137d3565b91505092915050565b600073ffffffffffffffffffffffffffffffffffffffff82169050919050565b600061384082613815565b9050919050565b61385081613835565b82525050565b600060208201905061386b6000830184613847565b92915050565b61387a81613835565b811461388557600080fd5b50565b60008135905061389781613871565b92915050565b600080604083850312156138b4576138b36133ce565b5b60006138c285828601613888565b92505060206138d3858286016137d3565b9150509250929050565b6138e6816137b2565b82525050565b600060208201905061390160008301846138dd565b92915050565b6000806000606084860312156139205761391f6133ce565b5b600061392e86828701613888565b935050602061393f86828701613888565b9250506040613950868287016137d3565b9150509250925092565b6004811061396757600080fd5b50565b6000813590506139798161395a565b92915050565b600060208284031215613995576139946133ce565b5b60006139a38482850161396a565b91505092915050565b600080604083850312156139c3576139c26133ce565b5b60006139d1858286016137d3565b92505060206139e28582860161396a565b9150509250929050565b600060208284031215613a0257613a016133ce565b5b6000613a1084828501613888565b91505092915050565b613a22816136d2565b8114613a2d57600080fd5b50565b600081359050613a3f81613a19565b92915050565b60008060408385031215613a5c57613a5b6133ce565b5b6000613a6a858286016137d3565b9250506020613a7b85828601613a30565b9150509250929050565b60008060408385031215613a9c57613a9b6133ce565b5b6000613aaa85828601613888565b9250506020613abb85828601613a30565b9150509250929050565b600067ffffffffffffffff821115613ae057613adf6133ee565b5b613ae9826133dd565b9050602081019050919050565b6000613b09613b0484613ac5565b61344e565b905082815260208101848484011115613b2557613b2461349a565b5b613b308482856134d0565b509392505050565b600082601f830112613b4d57613b4c6133d8565b5b8135613b5d848260208601613af6565b91505092915050565b60008060008060808587031215613b8057613b7f6133ce565b5b6000613b8e87828801613888565b9450506020613b9f87828801613888565b9350506040613bb0878288016137d3565b925050606085013567ffffffffffffffff811115613bd157613bd06133d3565b5b613bdd87828801613b38565b91505092959194509250565b7f4e487b7100000000000000000000000000000000000000000000000000000000600052602160045260246000fd5b60048110613c2957613c28613be9565b5b50565b6000819050613c3a82613c18565b919050565b6000613c4a82613c2c565b9050919050565b613c5a81613c3f565b82525050565b6000602082019050613c756000830184613c51565b92915050565b60008060408385031215613c9257613c916133ce565b5b6000613ca085828601613888565b9250506020613cb185828601613888565b9150509250929050565b7f4f776e61626c653a2063616c6c6572206973206e6f7420746865206f776e6572600082015250565b6000613cf1602083613713565b9150613cfc82613cbb565b602082019050919050565b60006020820190508181036000830152613d2081613ce4565b9050919050565b7f4e487b7100000000000000000000000000000000000000000000000000000000600052603260045260246000fd5b7f4e487b7100000000000000000000000000000000000000000000000000000000600052602260045260246000fd5b60006002820490506001821680613d9d57607f821691505b60208210811415613db157613db0613d56565b5b50919050565b7f4552433732313a20617070726f76656420717565727920666f72206e6f6e657860008201527f697374656e7420746f6b656e0000000000000000000000000000000000000000602082015250565b6000613e13602c83613713565b9150613e1e82613db7565b604082019050919050565b60006020820190508181036000830152613e4281613e06565b9050919050565b7f4552433732313a20617070726f76616c20746f2063757272656e74206f776e6560008201527f7200000000000000000000000000000000000000000000000000000000000000602082015250565b6000613ea5602183613713565b9150613eb082613e49565b604082019050919050565b60006020820190508181036000830152613ed481613e98565b9050919050565b7f4552433732313a20617070726f76652063616c6c6572206973206e6f74206f7760008201527f6e6572206e6f7220617070726f76656420666f7220616c6c0000000000000000602082015250565b6000613f37603883613713565b9150613f4282613edb565b604082019050919050565b60006020820190508181036000830152613f6681613f2a565b9050919050565b7f4e487b7100000000000000000000000000000000000000000000000000000000600052601160045260246000fd5b6000613fa7826137b2565b9150613fb2836137b2565b9250827fffffffffffffffffffffffffffffffffffffffffffffffffffffffffffffffff03821115613fe757613fe6613f6d565b5b828201905092915050565b6000613ffd826137b2565b9150614008836137b2565b9250817fffffffffffffffffffffffffffffffffffffffffffffffffffffffffffffffff048311821515161561404157614040613f6d565b5b828202905092915050565b60008151905061405b816137bc565b92915050565b600060208284031215614077576140766133ce565b5b60006140858482850161404c565b91505092915050565b7f496e73756666696369656e7420434f4d50000000000000000000000000000000600082015250565b60006140c4601183613713565b91506140cf8261408e565b602082019050919050565b600060208201905081810360008301526140f3816140b7565b9050919050565b7f496e73756666696369656e7420534e5800000000000000000000000000000000600082015250565b6000614130601083613713565b915061413b826140fa565b602082019050919050565b6000602082019050818103600083015261415f81614123565b9050919050565b7f4552433732313a207472616e736665722063616c6c6572206973206e6f74206f60008201527f776e6572206e6f7220617070726f766564000000000000000000000000000000602082015250565b60006141c2603183613713565b91506141cd82614166565b604082019050919050565b600060208201905081810360008301526141f1816141b5565b9050919050565b7f455243373231456e756d657261626c653a206f776e657220696e646578206f7560008201527f74206f6620626f756e6473000000000000000000000000000000000000000000602082015250565b6000614254602b83613713565b915061425f826141f8565b604082019050919050565b6000602082019050818103600083015261428381614247565b9050919050565b7f455243373231456e756d657261626c653a20676c6f62616c20696e646578206f60008201527f7574206f6620626f756e64730000000000000000000000000000000000000000602082015250565b60006142e6602c83613713565b91506142f18261428a565b604082019050919050565b60006020820190508181036000830152614315816142d9565b9050919050565b7f4552433732313a206f776e657220717565727920666f72206e6f6e657869737460008201527f656e7420746f6b656e0000000000000000000000000000000000000000000000602082015250565b6000614378602983613713565b91506143838261431c565b604082019050919050565b600060208201905081810360008301526143a78161436b565b9050919050565b7f53656e646572206d757374206265206f776e6572000000000000000000000000600082015250565b60006143e4601483613713565b91506143ef826143ae565b602082019050919050565b60006020820190508181036000830152614413816143d7565b9050919050565b7f4552433732313a2062616c616e636520717565727920666f7220746865207a6560008201527f726f206164647265737300000000000000000000000000000000000000000000602082015250565b6000614476602a83613713565b91506144818261441a565b604082019050919050565b600060208201905081810360008301526144a581614469565b9050919050565b60006040820190506144c16000830185613847565b6144ce60208301846138dd565b9392505050565b6000815190506144e481613a19565b92915050565b600060208284031215614500576144ff6133ce565b5b600061450e848285016144d5565b91505092915050565b7f546f6b656e20646f65736e277420657869737400000000000000000000000000600082015250565b600061454d601383613713565b915061455882614517565b602082019050919050565b6000602082019050818103600083015261457c81614540565b9050919050565b600081905092915050565b60008190508160005260206000209050919050565b600081546145b081613d85565b6145ba8186614583565b945060018216600081146145d557600181146145e657614619565b60ff19831686528186019350614619565b6145ef8561458e565b60005b83811015614611578154818901526001820191506020810190506145f2565b838801955050505b50505092915050565b600061462e82846145a3565b915081905092915050565b7f4f776e61626c653a206e6577206f776e657220697320746865207a65726f206160008201527f6464726573730000000000000000000000000000000000000000000000000000602082015250565b6000614695602683613713565b91506146a082614639565b604082019050919050565b600060208201905081810360008301526146c481614688565b9050919050565b7f4552433732313a206d696e7420746f20746865207a65726f2061646472657373600082015250565b6000614701602083613713565b915061470c826146cb565b602082019050919050565b60006020820190508181036000830152614730816146f4565b9050919050565b7f4552433732313a20746f6b656e20616c7265616479206d696e74656400000000600082015250565b600061476d601c83613713565b915061477882614737565b602082019050919050565b6000602082019050818103600083015261479c81614760565b9050919050565b7f4552433732313a206f70657261746f7220717565727920666f72206e6f6e657860008201527f697374656e7420746f6b656e0000000000000000000000000000000000000000602082015250565b60006147ff602c83613713565b915061480a826147a3565b604082019050919050565b6000602082019050818103600083015261482e816147f2565b9050919050565b7f4552433732313a207472616e73666572206f6620746f6b656e2074686174206960008201527f73206e6f74206f776e0000000000000000000000000000000000000000000000602082015250565b6000614891602983613713565b915061489c82614835565b604082019050919050565b600060208201905081810360008301526148c081614884565b9050919050565b7f4552433732313a207472616e7366657220746f20746865207a65726f2061646460008201527f7265737300000000000000000000000000000000000000000000000000000000602082015250565b6000614923602483613713565b915061492e826148c7565b604082019050919050565b6000602082019050818103600083015261495281614916565b9050919050565b6000614964826137b2565b915061496f836137b2565b92508282101561498257614981613f6d565b5b828203905092915050565b60008151905061499c81613871565b92915050565b6000602082840312156149b8576149b76133ce565b5b60006149c68482850161498d565b91505092915050565b6000819050919050565b6000819050919050565b60006149fe6149f96149f4846149cf565b6149d9565b6137b2565b9050919050565b614a0e816149e3565b82525050565b600081519050919050565b600082825260208201905092915050565b6000819050602082019050919050565b614a4981613835565b82525050565b6000614a5b8383614a40565b60208301905092915050565b6000602082019050919050565b6000614a7f82614a14565b614a898185614a1f565b9350614a9483614a30565b8060005b83811015614ac5578151614aac8882614a4f565b9750614ab783614a67565b925050600181019050614a98565b5085935050505092915050565b600060a082019050614ae760008301886138dd565b614af46020830187614a05565b8181036040830152614b068186614a74565b9050614b156060830185613847565b614b2260808301846138dd565b9695505050505050565b600067ffffffffffffffff821115614b4757614b466133ee565b5b602082029050602081019050919050565b6000614b6b614b6684614b2c565b61344e565b90508083825260208201905060208402830185811115614b8e57614b8d613495565b5b835b81811015614bb75780614ba3888261404c565b845260208401935050602081019050614b90565b5050509392505050565b600082601f830112614bd657614bd56133d8565b5b8151614be6848260208601614b58565b91505092915050565b600060208284031215614c0557614c046133ce565b5b600082015167ffffffffffffffff811115614c2357614c226133d3565b5b614c2f84828501614bc1565b91505092915050565b7f4552433732313a20617070726f766520746f2063616c6c657200000000000000600082015250565b6000614c6e601983613713565b9150614c7982614c38565b602082019050919050565b60006020820190508181036000830152614c9d81614c61565b9050919050565b7f4552433732313a207472616e7366657220746f206e6f6e20455243373231526560008201527f63656976657220696d706c656d656e7465720000000000000000000000000000602082015250565b6000614d00603283613713565b9150614d0b82614ca4565b604082019050919050565b60006020820190508181036000830152614d2f81614cf3565b9050919050565b600081519050919050565b600082825260208201905092915050565b6000614d5d82614d36565b614d678185614d41565b9350614d77818560208601613724565b614d80816133dd565b840191505092915050565b6000608082019050614da06000830187613847565b614dad6020830186613847565b614dba60408301856138dd565b8181036060830152614dcc8184614d52565b905095945050505050565b600081519050614de681613679565b92915050565b600060208284031215614e0257614e016133ce565b5b6000614e1084828501614dd7565b91505092915050565b7f4e487b7100000000000000000000000000000000000000000000000000000000600052603160045260246000fdfea2646970667358221220e03f414c44b04a08557dc0994168e37bb55952d35556f53f91f4f27dd0c2bc3164736f6c634300080a0033",
  "immutableReferences": {},
  "source": "// SPDX-License-Identifier: MIT\npragma solidity 0.8.10;\n\nimport \"@openzeppelin/contracts/token/ERC20/ERC20.sol\";\nimport \"@openzeppelin/contracts/token/ERC721/extensions/ERC721Enumerable.sol\";\nimport \"@openzeppelin/contracts/token/ERC721/ERC721.sol\";\nimport \"@openzeppelin/contracts/access/Ownable.sol\";\nimport \"./Router.sol\";\n\ncontract IndexNFT is ERC721, ERC721Enumerable, Ownable {\n    enum Color {\n        Black,\n        White,\n        Green,\n        Yellow\n    }\n    uint256 internal constant INDEX_VALUE = 50000000000000000 wei;\n    uint256 internal constant COMP_Index_value = 0.05 ether;\n    uint256 internal constant SNX_Index_value = 0.05 ether;\n    address internal constant UNISWAP_ROUTER_ADDRESS =\n        0x7a250d5630B4cF539739dF2C5dAcb4c659F2488D;\n    uint256 token_id_count;\n    mapping(uint256 => Color) public token_color;\n    mapping(Color => string) public color_uri;\n\n    Router router = Router(UNISWAP_ROUTER_ADDRESS);\n    ERC20 COMP_token = ERC20(0x61460874a7196d6a22D1eE4922473664b3E95270);\n    ERC20 SNX_token = ERC20(0xC011a73ee8576Fb46F5E1c5751cA3B9Fe0af2a6F);\n    ERC20 DAI_token = ERC20(0x4F96Fe3b7A6Cf9725f59d353F723c1bDb64CA6Aa);\n\n    constructor() ERC721(\"Crypto Index\", \"CI\") {}\n\n    modifier onlyOwnerOfToken(uint256 tokenId) {\n        require(ownerOf(tokenId) == msg.sender, \"Sender must be owner\");\n        _;\n    }\n\n    function burnNFT(uint256 tokenId, bool convertToStableCoin)\n        public\n        onlyOwnerOfToken(tokenId)\n    {\n        require(\n            COMP_token.balanceOf(address(this)) >= INDEX_VALUE * totalSupply(),\n            \"Insufficient COMP\"\n        );\n        require(\n            SNX_token.balanceOf(address(this)) >= INDEX_VALUE * totalSupply(),\n            \"Insufficient SNX\"\n        );\n        if (convertToStableCoin) {\n            swapSNXToDAI();\n            swapCOMPToDAI();\n        } else {\n            COMP_token.transfer(ownerOf(tokenId), COMP_Index_value);\n            SNX_token.transfer(ownerOf(tokenId), SNX_Index_value);\n        }\n        _burn(tokenId);\n    }\n\n    function mint() public onlyOwner {\n        require(\n            COMP_token.balanceOf(address(this)) >=\n                INDEX_VALUE * (totalSupply() + 1),\n            \"Insufficient COMP\"\n        );\n        require(\n            SNX_token.balanceOf(address(this)) >=\n                INDEX_VALUE * (totalSupply() + 1),\n            \"Insufficient SNX\"\n        );\n        _mint(msg.sender, token_id_count);\n        token_id_count += 1;\n    }\n\n    function swapSNXToDAI() private {\n        address[] memory path = new address[](3);\n        path[0] = address(SNX_token);\n        path[1] = router.WETH();\n        path[2] = address(DAI_token);\n\n        SNX_token.approve(address(router), INDEX_VALUE);\n\n        router.swapExactTokensForTokens(\n            INDEX_VALUE,\n            0,\n            path,\n            msg.sender,\n            block.timestamp + 20\n        );\n    }\n\n    function swapCOMPToDAI() private {\n        address[] memory path = new address[](3);\n        path[0] = address(COMP_token);\n        path[1] = router.WETH();\n        path[2] = address(DAI_token);\n\n        COMP_token.approve(address(router), INDEX_VALUE);\n\n        router.swapExactTokensForTokens(\n            INDEX_VALUE,\n            0,\n            path,\n            msg.sender,\n            block.timestamp\n        );\n    }\n\n    function tokenURI(uint256 tokenId)\n        public\n        view\n        virtual\n        override\n        returns (string memory)\n    {\n        require(_exists(tokenId), \"Token doesn't exist\");\n        if (abi.encodePacked(color_uri[token_color[tokenId]]).length > 0) {\n            return color_uri[token_color[tokenId]];\n        } else if (abi.encodePacked(color_uri[Color.Black]).length > 0) {\n            return color_uri[Color.Black];\n        } else {\n            return \"\";\n        }\n    }\n\n    function setTokenURIs(string[] memory uris) public onlyOwner {\n        color_uri[Color.Black] = uris[0];\n        color_uri[Color.White] = uris[1];\n        color_uri[Color.Green] = uris[2];\n        color_uri[Color.Yellow] = uris[3];\n    }\n\n    function setTokenColor(uint256 tokenId, Color color)\n        public\n        onlyOwnerOfToken(tokenId)\n    {\n        token_color[tokenId] = color;\n    }\n\n    function supportsInterface(bytes4 interfaceId)\n        public\n        view\n        override(ERC721, ERC721Enumerable)\n        returns (bool)\n    {\n        return super.supportsInterface(interfaceId);\n    }\n\n    function _beforeTokenTransfer(\n        address from,\n        address to,\n        uint256 tokenId\n    ) internal override(ERC721, ERC721Enumerable) {\n        super._beforeTokenTransfer(from, to, tokenId);\n    }\n}\n",
  "sourcePath": "/Users/javiermolinas/Desktop/develop/crypto-index/Dapp-Crypto-Index/smart-contracts/contracts/Crypto-index.sol",
  "compiler": {
    "name": "solc",
    "version": "0.8.10+commit.fc410830.Emscripten.clang"
  },
  "schemaVersion": "3.4.4",
  "updatedAt": "2022-01-11T00:47:27.995Z",
  "devdoc": {
    "kind": "dev",
    "methods": {
      "approve(address,uint256)": {
        "details": "See {IERC721-approve}."
      },
      "balanceOf(address)": {
        "details": "See {IERC721-balanceOf}."
      },
      "getApproved(uint256)": {
        "details": "See {IERC721-getApproved}."
      },
      "isApprovedForAll(address,address)": {
        "details": "See {IERC721-isApprovedForAll}."
      },
      "name()": {
        "details": "See {IERC721Metadata-name}."
      },
      "owner()": {
        "details": "Returns the address of the current owner."
      },
      "ownerOf(uint256)": {
        "details": "See {IERC721-ownerOf}."
      },
      "renounceOwnership()": {
        "details": "Leaves the contract without owner. It will not be possible to call `onlyOwner` functions anymore. Can only be called by the current owner. NOTE: Renouncing ownership will leave the contract without an owner, thereby removing any functionality that is only available to the owner."
      },
      "safeTransferFrom(address,address,uint256)": {
        "details": "See {IERC721-safeTransferFrom}."
      },
      "safeTransferFrom(address,address,uint256,bytes)": {
        "details": "See {IERC721-safeTransferFrom}."
      },
      "setApprovalForAll(address,bool)": {
        "details": "See {IERC721-setApprovalForAll}."
      },
      "symbol()": {
        "details": "See {IERC721Metadata-symbol}."
      },
      "tokenByIndex(uint256)": {
        "details": "See {IERC721Enumerable-tokenByIndex}."
      },
      "tokenOfOwnerByIndex(address,uint256)": {
        "details": "See {IERC721Enumerable-tokenOfOwnerByIndex}."
      },
      "tokenURI(uint256)": {
        "details": "See {IERC721Metadata-tokenURI}."
      },
      "totalSupply()": {
        "details": "See {IERC721Enumerable-totalSupply}."
      },
      "transferFrom(address,address,uint256)": {
        "details": "See {IERC721-transferFrom}."
      },
      "transferOwnership(address)": {
        "details": "Transfers ownership of the contract to a new account (`newOwner`). Can only be called by the current owner."
      }
    },
    "version": 1
  },
  "userdoc": {
    "kind": "user",
    "methods": {},
    "version": 1
  }
}