{
  "contractName": "IndexNFT",
  "abi": [
    {
      "inputs": [],
      "stateMutability": "nonpayable",
      "type": "constructor"
    },
    {
      "anonymous": false,
      "inputs": [
        {
          "indexed": true,
          "internalType": "address",
          "name": "owner",
          "type": "address"
        },
        {
          "indexed": true,
          "internalType": "address",
          "name": "approved",
          "type": "address"
        },
        {
          "indexed": true,
          "internalType": "uint256",
          "name": "tokenId",
          "type": "uint256"
        }
      ],
      "name": "Approval",
      "type": "event"
    },
    {
      "anonymous": false,
      "inputs": [
        {
          "indexed": true,
          "internalType": "address",
          "name": "owner",
          "type": "address"
        },
        {
          "indexed": true,
          "internalType": "address",
          "name": "operator",
          "type": "address"
        },
        {
          "indexed": false,
          "internalType": "bool",
          "name": "approved",
          "type": "bool"
        }
      ],
      "name": "ApprovalForAll",
      "type": "event"
    },
    {
      "anonymous": false,
      "inputs": [
        {
          "indexed": true,
          "internalType": "address",
          "name": "from",
          "type": "address"
        },
        {
          "indexed": true,
          "internalType": "address",
          "name": "to",
          "type": "address"
        },
        {
          "indexed": true,
          "internalType": "uint256",
          "name": "tokenId",
          "type": "uint256"
        }
      ],
      "name": "Transfer",
      "type": "event"
    },
    {
      "inputs": [
        {
          "internalType": "address",
          "name": "to",
          "type": "address"
        },
        {
          "internalType": "uint256",
          "name": "tokenId",
          "type": "uint256"
        }
      ],
      "name": "approve",
      "outputs": [],
      "stateMutability": "nonpayable",
      "type": "function"
    },
    {
      "inputs": [
        {
          "internalType": "address",
          "name": "owner",
          "type": "address"
        }
      ],
      "name": "balanceOf",
      "outputs": [
        {
          "internalType": "uint256",
          "name": "",
          "type": "uint256"
        }
      ],
      "stateMutability": "view",
      "type": "function",
      "constant": true
    },
    {
      "inputs": [
        {
          "internalType": "uint256",
          "name": "tokenId",
          "type": "uint256"
        }
      ],
      "name": "getApproved",
      "outputs": [
        {
          "internalType": "address",
          "name": "",
          "type": "address"
        }
      ],
      "stateMutability": "view",
      "type": "function",
      "constant": true
    },
    {
      "inputs": [
        {
          "internalType": "address",
          "name": "owner",
          "type": "address"
        },
        {
          "internalType": "address",
          "name": "operator",
          "type": "address"
        }
      ],
      "name": "isApprovedForAll",
      "outputs": [
        {
          "internalType": "bool",
          "name": "",
          "type": "bool"
        }
      ],
      "stateMutability": "view",
      "type": "function",
      "constant": true
    },
    {
      "inputs": [],
      "name": "name",
      "outputs": [
        {
          "internalType": "string",
          "name": "",
          "type": "string"
        }
      ],
      "stateMutability": "view",
      "type": "function",
      "constant": true
    },
    {
      "inputs": [
        {
          "internalType": "uint256",
          "name": "tokenId",
          "type": "uint256"
        }
      ],
      "name": "ownerOf",
      "outputs": [
        {
          "internalType": "address",
          "name": "",
          "type": "address"
        }
      ],
      "stateMutability": "view",
      "type": "function",
      "constant": true
    },
    {
      "inputs": [
        {
          "internalType": "address",
          "name": "from",
          "type": "address"
        },
        {
          "internalType": "address",
          "name": "to",
          "type": "address"
        },
        {
          "internalType": "uint256",
          "name": "tokenId",
          "type": "uint256"
        }
      ],
      "name": "safeTransferFrom",
      "outputs": [],
      "stateMutability": "nonpayable",
      "type": "function"
    },
    {
      "inputs": [
        {
          "internalType": "address",
          "name": "from",
          "type": "address"
        },
        {
          "internalType": "address",
          "name": "to",
          "type": "address"
        },
        {
          "internalType": "uint256",
          "name": "tokenId",
          "type": "uint256"
        },
        {
          "internalType": "bytes",
          "name": "_data",
          "type": "bytes"
        }
      ],
      "name": "safeTransferFrom",
      "outputs": [],
      "stateMutability": "nonpayable",
      "type": "function"
    },
    {
      "inputs": [
        {
          "internalType": "address",
          "name": "operator",
          "type": "address"
        },
        {
          "internalType": "bool",
          "name": "approved",
          "type": "bool"
        }
      ],
      "name": "setApprovalForAll",
      "outputs": [],
      "stateMutability": "nonpayable",
      "type": "function"
    },
    {
      "inputs": [
        {
          "internalType": "bytes4",
          "name": "interfaceId",
          "type": "bytes4"
        }
      ],
      "name": "supportsInterface",
      "outputs": [
        {
          "internalType": "bool",
          "name": "",
          "type": "bool"
        }
      ],
      "stateMutability": "view",
      "type": "function",
      "constant": true
    },
    {
      "inputs": [],
      "name": "symbol",
      "outputs": [
        {
          "internalType": "string",
          "name": "",
          "type": "string"
        }
      ],
      "stateMutability": "view",
      "type": "function",
      "constant": true
    },
    {
      "inputs": [
        {
          "internalType": "uint256",
          "name": "tokenId",
          "type": "uint256"
        }
      ],
      "name": "tokenURI",
      "outputs": [
        {
          "internalType": "string",
          "name": "",
          "type": "string"
        }
      ],
      "stateMutability": "view",
      "type": "function",
      "constant": true
    },
    {
      "inputs": [
        {
          "internalType": "address",
          "name": "from",
          "type": "address"
        },
        {
          "internalType": "address",
          "name": "to",
          "type": "address"
        },
        {
          "internalType": "uint256",
          "name": "tokenId",
          "type": "uint256"
        }
      ],
      "name": "transferFrom",
      "outputs": [],
      "stateMutability": "nonpayable",
      "type": "function"
    },
    {
      "inputs": [
        {
          "internalType": "uint256",
          "name": "tokenId",
          "type": "uint256"
        },
        {
          "internalType": "bool",
          "name": "convertToStableCoin",
          "type": "bool"
        }
      ],
      "name": "burnNFT",
      "outputs": [],
      "stateMutability": "nonpayable",
      "type": "function"
    },
    {
      "inputs": [],
      "name": "mint",
      "outputs": [],
      "stateMutability": "nonpayable",
      "type": "function"
    },
    {
      "inputs": [
        {
          "internalType": "address",
          "name": "newMinter",
          "type": "address"
        }
      ],
      "name": "changeMinter",
      "outputs": [],
      "stateMutability": "nonpayable",
      "type": "function"
    }
  ],
  "bytecode": "0x608060405266b1a2bc2ec5000060075566b1a2bc2ec5000060085566b1a2bc2ec500006009556000600a556000600b55737a250d5630b4cf539739df2c5dacb4c659f2488d600c60006101000a81548173ffffffffffffffffffffffffffffffffffffffff021916908373ffffffffffffffffffffffffffffffffffffffff1602179055507361460874a7196d6a22d1ee4922473664b3e95270600d60006101000a81548173ffffffffffffffffffffffffffffffffffffffff021916908373ffffffffffffffffffffffffffffffffffffffff16021790555073c011a73ee8576fb46f5e1c5751ca3b9fe0af2a6f600e60006101000a81548173ffffffffffffffffffffffffffffffffffffffff021916908373ffffffffffffffffffffffffffffffffffffffff160217905550734f96fe3b7a6cf9725f59d353f723c1bdb64ca6aa600f60006101000a81548173ffffffffffffffffffffffffffffffffffffffff021916908373ffffffffffffffffffffffffffffffffffffffff1602179055503480156200019057600080fd5b506040518060400160405280600c81526020017f43727970746f20496e64657800000000000000000000000000000000000000008152506040518060400160405280600281526020017f434900000000000000000000000000000000000000000000000000000000000081525081600090805190602001906200021592919062000278565b5080600190805190602001906200022e92919062000278565b50505033600660006101000a81548173ffffffffffffffffffffffffffffffffffffffff021916908373ffffffffffffffffffffffffffffffffffffffff1602179055506200038d565b828054620002869062000357565b90600052602060002090601f016020900481019282620002aa5760008555620002f6565b82601f10620002c557805160ff1916838001178555620002f6565b82800160010185558215620002f6579182015b82811115620002f5578251825591602001919060010190620002d8565b5b50905062000305919062000309565b5090565b5b80821115620003245760008160009055506001016200030a565b5090565b7f4e487b7100000000000000000000000000000000000000000000000000000000600052602260045260246000fd5b600060028204905060018216806200037057607f821691505b6020821081141562000387576200038662000328565b5b50919050565b613d01806200039d6000396000f3fe608060405234801561001057600080fd5b50600436106101005760003560e01c80636352211e11610097578063a22cb46511610066578063a22cb46514610297578063b88d4fde146102b3578063c87b56dd146102cf578063e985e9c5146102ff57610100565b80636352211e146101fd57806370a082311461022d5780637505c6501461025d57806395d89b411461027957610100565b80631249c58b116100d35780631249c58b1461019f57806323b872dd146101a95780632c4d4d18146101c557806342842e0e146101e157610100565b806301ffc9a71461010557806306fdde0314610135578063081812fc14610153578063095ea7b314610183575b600080fd5b61011f600480360381019061011a9190612605565b61032f565b60405161012c919061264d565b60405180910390f35b61013d610411565b60405161014a9190612701565b60405180910390f35b61016d60048036038101906101689190612759565b6104a3565b60405161017a91906127c7565b60405180910390f35b61019d6004803603810190610198919061280e565b610528565b005b6101a7610640565b005b6101c360048036038101906101be919061284e565b610904565b005b6101df60048036038101906101da91906128a1565b610964565b005b6101fb60048036038101906101f6919061284e565b610a38565b005b61021760048036038101906102129190612759565b610a58565b60405161022491906127c7565b60405180910390f35b610247600480360381019061024291906128a1565b610b0a565b60405161025491906128dd565b60405180910390f35b61027760048036038101906102729190612924565b610bc2565b005b610281610fab565b60405161028e9190612701565b60405180910390f35b6102b160048036038101906102ac9190612964565b61103d565b005b6102cd60048036038101906102c89190612ad9565b611053565b005b6102e960048036038101906102e49190612759565b6110b5565b6040516102f69190612701565b60405180910390f35b61031960048036038101906103149190612b5c565b61115c565b604051610326919061264d565b60405180910390f35b60007f80ac58cd000000000000000000000000000000000000000000000000000000007bffffffffffffffffffffffffffffffffffffffffffffffffffffffff1916827bffffffffffffffffffffffffffffffffffffffffffffffffffffffff191614806103fa57507f5b5e139f000000000000000000000000000000000000000000000000000000007bffffffffffffffffffffffffffffffffffffffffffffffffffffffff1916827bffffffffffffffffffffffffffffffffffffffffffffffffffffffff1916145b8061040a5750610409826111f0565b5b9050919050565b60606000805461042090612bcb565b80601f016020809104026020016040519081016040528092919081815260200182805461044c90612bcb565b80156104995780601f1061046e57610100808354040283529160200191610499565b820191906000526020600020905b81548152906001019060200180831161047c57829003601f168201915b5050505050905090565b60006104ae8261125a565b6104ed576040517f08c379a00000000000000000000000000000000000000000000000000000000081526004016104e490612c6f565b60405180910390fd5b6004600083815260200190815260200160002060009054906101000a900473ffffffffffffffffffffffffffffffffffffffff169050919050565b600061053382610a58565b90508073ffffffffffffffffffffffffffffffffffffffff168373ffffffffffffffffffffffffffffffffffffffff1614156105a4576040517f08c379a000000000000000000000000000000000000000000000000000000000815260040161059b90612d01565b60405180910390fd5b8073ffffffffffffffffffffffffffffffffffffffff166105c36112c6565b73ffffffffffffffffffffffffffffffffffffffff1614806105f257506105f1816105ec6112c6565b61115c565b5b610631576040517f08c379a000000000000000000000000000000000000000000000000000000000815260040161062890612d93565b60405180910390fd5b61063b83836112ce565b505050565b6001600b5461064f9190612de2565b60075461065c9190612e38565b600d60009054906101000a900473ffffffffffffffffffffffffffffffffffffffff1673ffffffffffffffffffffffffffffffffffffffff166370a08231306040518263ffffffff1660e01b81526004016106b791906127c7565b602060405180830381865afa1580156106d4573d6000803e3d6000fd5b505050506040513d601f19601f820116820180604052508101906106f89190612ea7565b1015610739576040517f08c379a000000000000000000000000000000000000000000000000000000000815260040161073090612f20565b60405180910390fd5b6001600b546107489190612de2565b6007546107559190612e38565b600e60009054906101000a900473ffffffffffffffffffffffffffffffffffffffff1673ffffffffffffffffffffffffffffffffffffffff166370a08231306040518263ffffffff1660e01b81526004016107b091906127c7565b602060405180830381865afa1580156107cd573d6000803e3d6000fd5b505050506040513d601f19601f820116820180604052508101906107f19190612ea7565b1015610832576040517f08c379a000000000000000000000000000000000000000000000000000000000815260040161082990612f8c565b60405180910390fd5b600660009054906101000a900473ffffffffffffffffffffffffffffffffffffffff1673ffffffffffffffffffffffffffffffffffffffff163373ffffffffffffffffffffffffffffffffffffffff16146108c2576040517f08c379a00000000000000000000000000000000000000000000000000000000081526004016108b990612ff8565b60405180910390fd5b6108ce33600a54611387565b6001600a60008282546108e19190612de2565b925050819055506001600b60008282546108fb9190612de2565b92505081905550565b61091561090f6112c6565b82611555565b610954576040517f08c379a000000000000000000000000000000000000000000000000000000000815260040161094b9061308a565b60405180910390fd5b61095f838383611633565b505050565b600660009054906101000a900473ffffffffffffffffffffffffffffffffffffffff1673ffffffffffffffffffffffffffffffffffffffff163373ffffffffffffffffffffffffffffffffffffffff16146109f4576040517f08c379a00000000000000000000000000000000000000000000000000000000081526004016109eb90612ff8565b60405180910390fd5b80600660006101000a81548173ffffffffffffffffffffffffffffffffffffffff021916908373ffffffffffffffffffffffffffffffffffffffff16021790555050565b610a5383838360405180602001604052806000815250611053565b505050565b6000806002600084815260200190815260200160002060009054906101000a900473ffffffffffffffffffffffffffffffffffffffff169050600073ffffffffffffffffffffffffffffffffffffffff168173ffffffffffffffffffffffffffffffffffffffff161415610b01576040517f08c379a0000000000000000000000000000000000000000000000000000000008152600401610af89061311c565b60405180910390fd5b80915050919050565b60008073ffffffffffffffffffffffffffffffffffffffff168273ffffffffffffffffffffffffffffffffffffffff161415610b7b576040517f08c379a0000000000000000000000000000000000000000000000000000000008152600401610b72906131ae565b60405180910390fd5b600360008373ffffffffffffffffffffffffffffffffffffffff1673ffffffffffffffffffffffffffffffffffffffff168152602001908152602001600020549050919050565b3373ffffffffffffffffffffffffffffffffffffffff16610be283610a58565b73ffffffffffffffffffffffffffffffffffffffff1614610c38576040517f08c379a0000000000000000000000000000000000000000000000000000000008152600401610c2f9061321a565b60405180910390fd5b600b54600754610c489190612e38565b600d60009054906101000a900473ffffffffffffffffffffffffffffffffffffffff1673ffffffffffffffffffffffffffffffffffffffff166370a08231306040518263ffffffff1660e01b8152600401610ca391906127c7565b602060405180830381865afa158015610cc0573d6000803e3d6000fd5b505050506040513d601f19601f82011682018060405250810190610ce49190612ea7565b1015610d25576040517f08c379a0000000000000000000000000000000000000000000000000000000008152600401610d1c90613286565b60405180910390fd5b600b54600754610d359190612e38565b600e60009054906101000a900473ffffffffffffffffffffffffffffffffffffffff1673ffffffffffffffffffffffffffffffffffffffff166370a08231306040518263ffffffff1660e01b8152600401610d9091906127c7565b602060405180830381865afa158015610dad573d6000803e3d6000fd5b505050506040513d601f19601f82011682018060405250810190610dd19190612ea7565b1015610e12576040517f08c379a0000000000000000000000000000000000000000000000000000000008152600401610e09906132f2565b60405180910390fd5b8015610e2d57610e2061188f565b610e28611c21565b610f84565b600d60009054906101000a900473ffffffffffffffffffffffffffffffffffffffff1673ffffffffffffffffffffffffffffffffffffffff1663a9059cbb610e7484610a58565b6008546040518363ffffffff1660e01b8152600401610e94929190613312565b6020604051808303816000875af1158015610eb3573d6000803e3d6000fd5b505050506040513d601f19601f82011682018060405250810190610ed79190613350565b50600e60009054906101000a900473ffffffffffffffffffffffffffffffffffffffff1673ffffffffffffffffffffffffffffffffffffffff1663a9059cbb610f1f84610a58565b6009546040518363ffffffff1660e01b8152600401610f3f929190613312565b6020604051808303816000875af1158015610f5e573d6000803e3d6000fd5b505050506040513d601f19601f82011682018060405250810190610f829190613350565b505b610f8d82611fa7565b6001600b6000828254610fa0919061337d565b925050819055505050565b606060018054610fba90612bcb565b80601f0160208091040260200160405190810160405280929190818152602001828054610fe690612bcb565b80156110335780601f1061100857610100808354040283529160200191611033565b820191906000526020600020905b81548152906001019060200180831161101657829003601f168201915b5050505050905090565b61104f6110486112c6565b83836120b8565b5050565b61106461105e6112c6565b83611555565b6110a3576040517f08c379a000000000000000000000000000000000000000000000000000000000815260040161109a9061308a565b60405180910390fd5b6110af84848484612225565b50505050565b60606110c08261125a565b6110ff576040517f08c379a00000000000000000000000000000000000000000000000000000000081526004016110f690613423565b60405180910390fd5b6000611109612281565b905060008151116111295760405180602001604052806000815250611154565b8061113384612298565b60405160200161114492919061347f565b6040516020818303038152906040525b915050919050565b6000600560008473ffffffffffffffffffffffffffffffffffffffff1673ffffffffffffffffffffffffffffffffffffffff16815260200190815260200160002060008373ffffffffffffffffffffffffffffffffffffffff1673ffffffffffffffffffffffffffffffffffffffff16815260200190815260200160002060009054906101000a900460ff16905092915050565b60007f01ffc9a7000000000000000000000000000000000000000000000000000000007bffffffffffffffffffffffffffffffffffffffffffffffffffffffff1916827bffffffffffffffffffffffffffffffffffffffffffffffffffffffff1916149050919050565b60008073ffffffffffffffffffffffffffffffffffffffff166002600084815260200190815260200160002060009054906101000a900473ffffffffffffffffffffffffffffffffffffffff1673ffffffffffffffffffffffffffffffffffffffff1614159050919050565b600033905090565b816004600083815260200190815260200160002060006101000a81548173ffffffffffffffffffffffffffffffffffffffff021916908373ffffffffffffffffffffffffffffffffffffffff160217905550808273ffffffffffffffffffffffffffffffffffffffff1661134183610a58565b73ffffffffffffffffffffffffffffffffffffffff167f8c5be1e5ebec7d5bd14f71427d1e84f3dd0314c0f7b2291e5b200ac8c7c3b92560405160405180910390a45050565b600073ffffffffffffffffffffffffffffffffffffffff168273ffffffffffffffffffffffffffffffffffffffff1614156113f7576040517f08c379a00000000000000000000000000000000000000000000000000000000081526004016113ee906134ef565b60405180910390fd5b6114008161125a565b15611440576040517f08c379a00000000000000000000000000000000000000000000000000000000081526004016114379061355b565b60405180910390fd5b61144c600083836123f9565b6001600360008473ffffffffffffffffffffffffffffffffffffffff1673ffffffffffffffffffffffffffffffffffffffff168152602001908152602001600020600082825461149c9190612de2565b92505081905550816002600083815260200190815260200160002060006101000a81548173ffffffffffffffffffffffffffffffffffffffff021916908373ffffffffffffffffffffffffffffffffffffffff160217905550808273ffffffffffffffffffffffffffffffffffffffff16600073ffffffffffffffffffffffffffffffffffffffff167fddf252ad1be2c89b69c2b068fc378daa952ba7f163c4a11628f55a4df523b3ef60405160405180910390a45050565b60006115608261125a565b61159f576040517f08c379a0000000000000000000000000000000000000000000000000000000008152600401611596906135ed565b60405180910390fd5b60006115aa83610a58565b90508073ffffffffffffffffffffffffffffffffffffffff168473ffffffffffffffffffffffffffffffffffffffff16148061161957508373ffffffffffffffffffffffffffffffffffffffff16611601846104a3565b73ffffffffffffffffffffffffffffffffffffffff16145b8061162a5750611629818561115c565b5b91505092915050565b8273ffffffffffffffffffffffffffffffffffffffff1661165382610a58565b73ffffffffffffffffffffffffffffffffffffffff16146116a9576040517f08c379a00000000000000000000000000000000000000000000000000000000081526004016116a09061367f565b60405180910390fd5b600073ffffffffffffffffffffffffffffffffffffffff168273ffffffffffffffffffffffffffffffffffffffff161415611719576040517f08c379a000000000000000000000000000000000000000000000000000000000815260040161171090613711565b60405180910390fd5b6117248383836123f9565b61172f6000826112ce565b6001600360008573ffffffffffffffffffffffffffffffffffffffff1673ffffffffffffffffffffffffffffffffffffffff168152602001908152602001600020600082825461177f919061337d565b925050819055506001600360008473ffffffffffffffffffffffffffffffffffffffff1673ffffffffffffffffffffffffffffffffffffffff16815260200190815260200160002060008282546117d69190612de2565b92505081905550816002600083815260200190815260200160002060006101000a81548173ffffffffffffffffffffffffffffffffffffffff021916908373ffffffffffffffffffffffffffffffffffffffff160217905550808273ffffffffffffffffffffffffffffffffffffffff168473ffffffffffffffffffffffffffffffffffffffff167fddf252ad1be2c89b69c2b068fc378daa952ba7f163c4a11628f55a4df523b3ef60405160405180910390a4505050565b6000600367ffffffffffffffff8111156118ac576118ab6129ae565b5b6040519080825280602002602001820160405280156118da5781602001602082028036833780820191505090505b509050600e60009054906101000a900473ffffffffffffffffffffffffffffffffffffffff168160008151811061191457611913613731565b5b602002602001019073ffffffffffffffffffffffffffffffffffffffff16908173ffffffffffffffffffffffffffffffffffffffff1681525050600c60009054906101000a900473ffffffffffffffffffffffffffffffffffffffff1673ffffffffffffffffffffffffffffffffffffffff1663ad5c46486040518163ffffffff1660e01b8152600401602060405180830381865afa1580156119bb573d6000803e3d6000fd5b505050506040513d601f19601f820116820180604052508101906119df9190613775565b816001815181106119f3576119f2613731565b5b602002602001019073ffffffffffffffffffffffffffffffffffffffff16908173ffffffffffffffffffffffffffffffffffffffff1681525050600f60009054906101000a900473ffffffffffffffffffffffffffffffffffffffff1681600281518110611a6457611a63613731565b5b602002602001019073ffffffffffffffffffffffffffffffffffffffff16908173ffffffffffffffffffffffffffffffffffffffff1681525050600e60009054906101000a900473ffffffffffffffffffffffffffffffffffffffff1673ffffffffffffffffffffffffffffffffffffffff1663095ea7b3600c60009054906101000a900473ffffffffffffffffffffffffffffffffffffffff166007546040518363ffffffff1660e01b8152600401611b1f929190613312565b6020604051808303816000875af1158015611b3e573d6000803e3d6000fd5b505050506040513d601f19601f82011682018060405250810190611b629190613350565b50600c60009054906101000a900473ffffffffffffffffffffffffffffffffffffffff1673ffffffffffffffffffffffffffffffffffffffff166338ed173960075460008433601442611bb59190612de2565b6040518663ffffffff1660e01b8152600401611bd59594939291906138a5565b6000604051808303816000875af1158015611bf4573d6000803e3d6000fd5b505050506040513d6000823e3d601f19601f82011682018060405250810190611c1d91906139c7565b5050565b6000600367ffffffffffffffff811115611c3e57611c3d6129ae565b5b604051908082528060200260200182016040528015611c6c5781602001602082028036833780820191505090505b509050600d60009054906101000a900473ffffffffffffffffffffffffffffffffffffffff1681600081518110611ca657611ca5613731565b5b602002602001019073ffffffffffffffffffffffffffffffffffffffff16908173ffffffffffffffffffffffffffffffffffffffff1681525050600c60009054906101000a900473ffffffffffffffffffffffffffffffffffffffff1673ffffffffffffffffffffffffffffffffffffffff1663ad5c46486040518163ffffffff1660e01b8152600401602060405180830381865afa158015611d4d573d6000803e3d6000fd5b505050506040513d601f19601f82011682018060405250810190611d719190613775565b81600181518110611d8557611d84613731565b5b602002602001019073ffffffffffffffffffffffffffffffffffffffff16908173ffffffffffffffffffffffffffffffffffffffff1681525050600f60009054906101000a900473ffffffffffffffffffffffffffffffffffffffff1681600281518110611df657611df5613731565b5b602002602001019073ffffffffffffffffffffffffffffffffffffffff16908173ffffffffffffffffffffffffffffffffffffffff1681525050600d60009054906101000a900473ffffffffffffffffffffffffffffffffffffffff1673ffffffffffffffffffffffffffffffffffffffff1663095ea7b3600c60009054906101000a900473ffffffffffffffffffffffffffffffffffffffff166007546040518363ffffffff1660e01b8152600401611eb1929190613312565b6020604051808303816000875af1158015611ed0573d6000803e3d6000fd5b505050506040513d601f19601f82011682018060405250810190611ef49190613350565b50600c60009054906101000a900473ffffffffffffffffffffffffffffffffffffffff1673ffffffffffffffffffffffffffffffffffffffff166338ed173960075460008433426040518663ffffffff1660e01b8152600401611f5b9594939291906138a5565b6000604051808303816000875af1158015611f7a573d6000803e3d6000fd5b505050506040513d6000823e3d601f19601f82011682018060405250810190611fa391906139c7565b5050565b6000611fb282610a58565b9050611fc0816000846123f9565b611fcb6000836112ce565b6001600360008373ffffffffffffffffffffffffffffffffffffffff1673ffffffffffffffffffffffffffffffffffffffff168152602001908152602001600020600082825461201b919061337d565b925050819055506002600083815260200190815260200160002060006101000a81549073ffffffffffffffffffffffffffffffffffffffff021916905581600073ffffffffffffffffffffffffffffffffffffffff168273ffffffffffffffffffffffffffffffffffffffff167fddf252ad1be2c89b69c2b068fc378daa952ba7f163c4a11628f55a4df523b3ef60405160405180910390a45050565b8173ffffffffffffffffffffffffffffffffffffffff168373ffffffffffffffffffffffffffffffffffffffff161415612127576040517f08c379a000000000000000000000000000000000000000000000000000000000815260040161211e90613a5c565b60405180910390fd5b80600560008573ffffffffffffffffffffffffffffffffffffffff1673ffffffffffffffffffffffffffffffffffffffff16815260200190815260200160002060008473ffffffffffffffffffffffffffffffffffffffff1673ffffffffffffffffffffffffffffffffffffffff16815260200190815260200160002060006101000a81548160ff0219169083151502179055508173ffffffffffffffffffffffffffffffffffffffff168373ffffffffffffffffffffffffffffffffffffffff167f17307eab39ab6107e8899845ad3d59bd9653f200f220920489ca2b5937696c3183604051612218919061264d565b60405180910390a3505050565b612230848484611633565b61223c848484846123fe565b61227b576040517f08c379a000000000000000000000000000000000000000000000000000000000815260040161227290613aee565b60405180910390fd5b50505050565b606060405180602001604052806000815250905090565b606060008214156122e0576040518060400160405280600181526020017f300000000000000000000000000000000000000000000000000000000000000081525090506123f4565b600082905060005b600082146123125780806122fb90613b0e565b915050600a8261230b9190613b86565b91506122e8565b60008167ffffffffffffffff81111561232e5761232d6129ae565b5b6040519080825280601f01601f1916602001820160405280156123605781602001600182028036833780820191505090505b5090505b600085146123ed57600182612379919061337d565b9150600a856123889190613bb7565b60306123949190612de2565b60f81b8183815181106123aa576123a9613731565b5b60200101907effffffffffffffffffffffffffffffffffffffffffffffffffffffffffffff1916908160001a905350600a856123e69190613b86565b9450612364565b8093505050505b919050565b505050565b600061241f8473ffffffffffffffffffffffffffffffffffffffff16612586565b15612579578373ffffffffffffffffffffffffffffffffffffffff1663150b7a026124486112c6565b8786866040518563ffffffff1660e01b815260040161246a9493929190613c3d565b6020604051808303816000875af19250505080156124a657506040513d601f19601f820116820180604052508101906124a39190613c9e565b60015b612529573d80600081146124d6576040519150601f19603f3d011682016040523d82523d6000602084013e6124db565b606091505b50600081511415612521576040517f08c379a000000000000000000000000000000000000000000000000000000000815260040161251890613aee565b60405180910390fd5b805181602001fd5b63150b7a0260e01b7bffffffffffffffffffffffffffffffffffffffffffffffffffffffff1916817bffffffffffffffffffffffffffffffffffffffffffffffffffffffff19161491505061257e565b600190505b949350505050565b600080823b905060008111915050919050565b6000604051905090565b600080fd5b600080fd5b60007fffffffff0000000000000000000000000000000000000000000000000000000082169050919050565b6125e2816125ad565b81146125ed57600080fd5b50565b6000813590506125ff816125d9565b92915050565b60006020828403121561261b5761261a6125a3565b5b6000612629848285016125f0565b91505092915050565b60008115159050919050565b61264781612632565b82525050565b6000602082019050612662600083018461263e565b92915050565b600081519050919050565b600082825260208201905092915050565b60005b838110156126a2578082015181840152602081019050612687565b838111156126b1576000848401525b50505050565b6000601f19601f8301169050919050565b60006126d382612668565b6126dd8185612673565b93506126ed818560208601612684565b6126f6816126b7565b840191505092915050565b6000602082019050818103600083015261271b81846126c8565b905092915050565b6000819050919050565b61273681612723565b811461274157600080fd5b50565b6000813590506127538161272d565b92915050565b60006020828403121561276f5761276e6125a3565b5b600061277d84828501612744565b91505092915050565b600073ffffffffffffffffffffffffffffffffffffffff82169050919050565b60006127b182612786565b9050919050565b6127c1816127a6565b82525050565b60006020820190506127dc60008301846127b8565b92915050565b6127eb816127a6565b81146127f657600080fd5b50565b600081359050612808816127e2565b92915050565b60008060408385031215612825576128246125a3565b5b6000612833858286016127f9565b925050602061284485828601612744565b9150509250929050565b600080600060608486031215612867576128666125a3565b5b6000612875868287016127f9565b9350506020612886868287016127f9565b925050604061289786828701612744565b9150509250925092565b6000602082840312156128b7576128b66125a3565b5b60006128c5848285016127f9565b91505092915050565b6128d781612723565b82525050565b60006020820190506128f260008301846128ce565b92915050565b61290181612632565b811461290c57600080fd5b50565b60008135905061291e816128f8565b92915050565b6000806040838503121561293b5761293a6125a3565b5b600061294985828601612744565b925050602061295a8582860161290f565b9150509250929050565b6000806040838503121561297b5761297a6125a3565b5b6000612989858286016127f9565b925050602061299a8582860161290f565b9150509250929050565b600080fd5b600080fd5b7f4e487b7100000000000000000000000000000000000000000000000000000000600052604160045260246000fd5b6129e6826126b7565b810181811067ffffffffffffffff82111715612a0557612a046129ae565b5b80604052505050565b6000612a18612599565b9050612a2482826129dd565b919050565b600067ffffffffffffffff821115612a4457612a436129ae565b5b612a4d826126b7565b9050602081019050919050565b82818337600083830152505050565b6000612a7c612a7784612a29565b612a0e565b905082815260208101848484011115612a9857612a976129a9565b5b612aa3848285612a5a565b509392505050565b600082601f830112612ac057612abf6129a4565b5b8135612ad0848260208601612a69565b91505092915050565b60008060008060808587031215612af357612af26125a3565b5b6000612b01878288016127f9565b9450506020612b12878288016127f9565b9350506040612b2387828801612744565b925050606085013567ffffffffffffffff811115612b4457612b436125a8565b5b612b5087828801612aab565b91505092959194509250565b60008060408385031215612b7357612b726125a3565b5b6000612b81858286016127f9565b9250506020612b92858286016127f9565b9150509250929050565b7f4e487b7100000000000000000000000000000000000000000000000000000000600052602260045260246000fd5b60006002820490506001821680612be357607f821691505b60208210811415612bf757612bf6612b9c565b5b50919050565b7f4552433732313a20617070726f76656420717565727920666f72206e6f6e657860008201527f697374656e7420746f6b656e0000000000000000000000000000000000000000602082015250565b6000612c59602c83612673565b9150612c6482612bfd565b604082019050919050565b60006020820190508181036000830152612c8881612c4c565b9050919050565b7f4552433732313a20617070726f76616c20746f2063757272656e74206f776e6560008201527f7200000000000000000000000000000000000000000000000000000000000000602082015250565b6000612ceb602183612673565b9150612cf682612c8f565b604082019050919050565b60006020820190508181036000830152612d1a81612cde565b9050919050565b7f4552433732313a20617070726f76652063616c6c6572206973206e6f74206f7760008201527f6e6572206e6f7220617070726f76656420666f7220616c6c0000000000000000602082015250565b6000612d7d603883612673565b9150612d8882612d21565b604082019050919050565b60006020820190508181036000830152612dac81612d70565b9050919050565b7f4e487b7100000000000000000000000000000000000000000000000000000000600052601160045260246000fd5b6000612ded82612723565b9150612df883612723565b9250827fffffffffffffffffffffffffffffffffffffffffffffffffffffffffffffffff03821115612e2d57612e2c612db3565b5b828201905092915050565b6000612e4382612723565b9150612e4e83612723565b9250817fffffffffffffffffffffffffffffffffffffffffffffffffffffffffffffffff0483118215151615612e8757612e86612db3565b5b828202905092915050565b600081519050612ea18161272d565b92915050565b600060208284031215612ebd57612ebc6125a3565b5b6000612ecb84828501612e92565b91505092915050565b7f4e6565647320434f4d5000000000000000000000000000000000000000000000600082015250565b6000612f0a600a83612673565b9150612f1582612ed4565b602082019050919050565b60006020820190508181036000830152612f3981612efd565b9050919050565b7f4e6565647320534e580000000000000000000000000000000000000000000000600082015250565b6000612f76600983612673565b9150612f8182612f40565b602082019050919050565b60006020820190508181036000830152612fa581612f69565b9050919050565b7f53656e646572206d75737420626520746865206d696e74657200000000000000600082015250565b6000612fe2601983612673565b9150612fed82612fac565b602082019050919050565b6000602082019050818103600083015261301181612fd5565b9050919050565b7f4552433732313a207472616e736665722063616c6c6572206973206e6f74206f60008201527f776e6572206e6f7220617070726f766564000000000000000000000000000000602082015250565b6000613074603183612673565b915061307f82613018565b604082019050919050565b600060208201905081810360008301526130a381613067565b9050919050565b7f4552433732313a206f776e657220717565727920666f72206e6f6e657869737460008201527f656e7420746f6b656e0000000000000000000000000000000000000000000000602082015250565b6000613106602983612673565b9150613111826130aa565b604082019050919050565b60006020820190508181036000830152613135816130f9565b9050919050565b7f4552433732313a2062616c616e636520717565727920666f7220746865207a6560008201527f726f206164647265737300000000000000000000000000000000000000000000602082015250565b6000613198602a83612673565b91506131a38261313c565b604082019050919050565b600060208201905081810360008301526131c78161318b565b9050919050565b7f53656e646572206d757374206265206f776e6572000000000000000000000000600082015250565b6000613204601483612673565b915061320f826131ce565b602082019050919050565b60006020820190508181036000830152613233816131f7565b9050919050565b7f496e737566696369656e7420434f4d5000000000000000000000000000000000600082015250565b6000613270601083612673565b915061327b8261323a565b602082019050919050565b6000602082019050818103600083015261329f81613263565b9050919050565b7f496e737566696369656e7420534e580000000000000000000000000000000000600082015250565b60006132dc600f83612673565b91506132e7826132a6565b602082019050919050565b6000602082019050818103600083015261330b816132cf565b9050919050565b600060408201905061332760008301856127b8565b61333460208301846128ce565b9392505050565b60008151905061334a816128f8565b92915050565b600060208284031215613366576133656125a3565b5b60006133748482850161333b565b91505092915050565b600061338882612723565b915061339383612723565b9250828210156133a6576133a5612db3565b5b828203905092915050565b7f4552433732314d657461646174613a2055524920717565727920666f72206e6f60008201527f6e6578697374656e7420746f6b656e0000000000000000000000000000000000602082015250565b600061340d602f83612673565b9150613418826133b1565b604082019050919050565b6000602082019050818103600083015261343c81613400565b9050919050565b600081905092915050565b600061345982612668565b6134638185613443565b9350613473818560208601612684565b80840191505092915050565b600061348b828561344e565b9150613497828461344e565b91508190509392505050565b7f4552433732313a206d696e7420746f20746865207a65726f2061646472657373600082015250565b60006134d9602083612673565b91506134e4826134a3565b602082019050919050565b60006020820190508181036000830152613508816134cc565b9050919050565b7f4552433732313a20746f6b656e20616c7265616479206d696e74656400000000600082015250565b6000613545601c83612673565b91506135508261350f565b602082019050919050565b6000602082019050818103600083015261357481613538565b9050919050565b7f4552433732313a206f70657261746f7220717565727920666f72206e6f6e657860008201527f697374656e7420746f6b656e0000000000000000000000000000000000000000602082015250565b60006135d7602c83612673565b91506135e28261357b565b604082019050919050565b60006020820190508181036000830152613606816135ca565b9050919050565b7f4552433732313a207472616e73666572206f6620746f6b656e2074686174206960008201527f73206e6f74206f776e0000000000000000000000000000000000000000000000602082015250565b6000613669602983612673565b91506136748261360d565b604082019050919050565b600060208201905081810360008301526136988161365c565b9050919050565b7f4552433732313a207472616e7366657220746f20746865207a65726f2061646460008201527f7265737300000000000000000000000000000000000000000000000000000000602082015250565b60006136fb602483612673565b91506137068261369f565b604082019050919050565b6000602082019050818103600083015261372a816136ee565b9050919050565b7f4e487b7100000000000000000000000000000000000000000000000000000000600052603260045260246000fd5b60008151905061376f816127e2565b92915050565b60006020828403121561378b5761378a6125a3565b5b600061379984828501613760565b91505092915050565b6000819050919050565b6000819050919050565b60006137d16137cc6137c7846137a2565b6137ac565b612723565b9050919050565b6137e1816137b6565b82525050565b600081519050919050565b600082825260208201905092915050565b6000819050602082019050919050565b61381c816127a6565b82525050565b600061382e8383613813565b60208301905092915050565b6000602082019050919050565b6000613852826137e7565b61385c81856137f2565b935061386783613803565b8060005b8381101561389857815161387f8882613822565b975061388a8361383a565b92505060018101905061386b565b5085935050505092915050565b600060a0820190506138ba60008301886128ce565b6138c760208301876137d8565b81810360408301526138d98186613847565b90506138e860608301856127b8565b6138f560808301846128ce565b9695505050505050565b600067ffffffffffffffff82111561391a576139196129ae565b5b602082029050602081019050919050565b600080fd5b600061394361393e846138ff565b612a0e565b905080838252602082019050602084028301858111156139665761396561392b565b5b835b8181101561398f578061397b8882612e92565b845260208401935050602081019050613968565b5050509392505050565b600082601f8301126139ae576139ad6129a4565b5b81516139be848260208601613930565b91505092915050565b6000602082840312156139dd576139dc6125a3565b5b600082015167ffffffffffffffff8111156139fb576139fa6125a8565b5b613a0784828501613999565b91505092915050565b7f4552433732313a20617070726f766520746f2063616c6c657200000000000000600082015250565b6000613a46601983612673565b9150613a5182613a10565b602082019050919050565b60006020820190508181036000830152613a7581613a39565b9050919050565b7f4552433732313a207472616e7366657220746f206e6f6e20455243373231526560008201527f63656976657220696d706c656d656e7465720000000000000000000000000000602082015250565b6000613ad8603283612673565b9150613ae382613a7c565b604082019050919050565b60006020820190508181036000830152613b0781613acb565b9050919050565b6000613b1982612723565b91507fffffffffffffffffffffffffffffffffffffffffffffffffffffffffffffffff821415613b4c57613b4b612db3565b5b600182019050919050565b7f4e487b7100000000000000000000000000000000000000000000000000000000600052601260045260246000fd5b6000613b9182612723565b9150613b9c83612723565b925082613bac57613bab613b57565b5b828204905092915050565b6000613bc282612723565b9150613bcd83612723565b925082613bdd57613bdc613b57565b5b828206905092915050565b600081519050919050565b600082825260208201905092915050565b6000613c0f82613be8565b613c198185613bf3565b9350613c29818560208601612684565b613c32816126b7565b840191505092915050565b6000608082019050613c5260008301876127b8565b613c5f60208301866127b8565b613c6c60408301856128ce565b8181036060830152613c7e8184613c04565b905095945050505050565b600081519050613c98816125d9565b92915050565b600060208284031215613cb457613cb36125a3565b5b6000613cc284828501613c89565b9150509291505056fea2646970667358221220ba8a678306c638ad6326e72c91d3f9004c7ad70cf2d977d8e476016306349a8564736f6c634300080a0033",
  "immutableReferences": {},
  "source": "// SPDX-License-Identifier: MIT\npragma solidity 0.8.10;\n\nimport \"@openzeppelin/contracts/token/ERC20/ERC20.sol\";\nimport \"@openzeppelin/contracts/token/ERC721/ERC721.sol\";\nimport './Router.sol';\n\ncontract IndexNFT is ERC721 {\n    address minter;\n    uint wei_index = 50000000000000000 wei;\n    uint COMP_Index_value = 0.05 ether;\n    uint SNX_Index_value = 0.05 ether;\n    uint token_id = 0;\n    uint minted_tokens = 0;\n    address internal constant UNISWAP_ROUTER_ADDRESS = 0x7a250d5630B4cF539739dF2C5dAcb4c659F2488D ;\n\n    Router router = Router(UNISWAP_ROUTER_ADDRESS);\n    ERC20 COMP_token = ERC20(0x61460874a7196d6a22D1eE4922473664b3E95270);\n    ERC20 SNX_token = ERC20(0xC011a73ee8576Fb46F5E1c5751cA3B9Fe0af2a6F);\n    ERC20 DAI_token = ERC20(0x4F96Fe3b7A6Cf9725f59d353F723c1bDb64CA6Aa);\n\n    constructor() ERC721(\"Crypto Index\", \"CI\") {\n        minter = msg.sender;\n    }\n\n    function burnNFT(uint tokenId, bool convertToStableCoin) public {\n        require(ownerOf(tokenId) == msg.sender, \"Sender must be owner\");\n        require(COMP_token.balanceOf(address(this)) >= wei_index * minted_tokens, \"Insuficient COMP\");\n        require(SNX_token.balanceOf(address(this)) >= wei_index * minted_tokens, \"Insuficient SNX\");\n        if (convertToStableCoin) {\n            swapSNXToDAI();\n            swapCOMPToDAI();\n        } else {\n            COMP_token.transfer(ownerOf(tokenId), COMP_Index_value);\n            SNX_token.transfer(ownerOf(tokenId), SNX_Index_value);\n        }\n        _burn(tokenId);\n        minted_tokens -= 1;\n    }\n\n    function mint() public {\n        require(COMP_token.balanceOf(address(this)) >= wei_index * (minted_tokens + 1), \"Needs COMP\");\n        require(SNX_token.balanceOf(address(this)) >= wei_index * (minted_tokens + 1), \"Needs SNX\");\n        require(msg.sender == minter, \"Sender must be the minter\");\n        _mint(msg.sender, token_id);\n        token_id += 1;\n        minted_tokens += 1;\n    }\n\n    function swapSNXToDAI() private {\n        address[] memory path = new address[](3);\n        path[0] = address(SNX_token);\n        path[1] = router.WETH();\n        path[2] = address(DAI_token);\n\n        SNX_token.approve(address(router), wei_index);\n\n        router.swapExactTokensForTokens(\n            wei_index,\n            0,\n            path,\n            msg.sender,\n            block.timestamp + 20\n        );\n    }\n\n    function swapCOMPToDAI() private {\n        address[] memory path = new address[](3);\n        path[0] = address(COMP_token);\n        path[1] = router.WETH();\n        path[2] = address(DAI_token);\n\n        COMP_token.approve(address(router), wei_index);\n\n        router.swapExactTokensForTokens(\n            wei_index,\n            0,\n            path,\n            msg.sender,\n            block.timestamp\n        );\n    }\n\n    function changeMinter(address newMinter) public {\n        require(msg.sender == minter, \"Sender must be the minter\");\n        minter = newMinter;\n    }\n}\n\n\n",
  "sourcePath": "/Users/javiermolinas/Desktop/develop/crypto-index/smart-contracts/contracts/Crypto-index.sol",
  "compiler": {
    "name": "solc",
    "version": "0.8.10+commit.fc410830.Emscripten.clang"
  },
  "schemaVersion": "3.4.4",
  "updatedAt": "2021-12-22T22:54:26.650Z",
  "networkType": "ethereum",
  "devdoc": {
    "kind": "dev",
    "methods": {
      "approve(address,uint256)": {
        "details": "See {IERC721-approve}."
      },
      "balanceOf(address)": {
        "details": "See {IERC721-balanceOf}."
      },
      "getApproved(uint256)": {
        "details": "See {IERC721-getApproved}."
      },
      "isApprovedForAll(address,address)": {
        "details": "See {IERC721-isApprovedForAll}."
      },
      "name()": {
        "details": "See {IERC721Metadata-name}."
      },
      "ownerOf(uint256)": {
        "details": "See {IERC721-ownerOf}."
      },
      "safeTransferFrom(address,address,uint256)": {
        "details": "See {IERC721-safeTransferFrom}."
      },
      "safeTransferFrom(address,address,uint256,bytes)": {
        "details": "See {IERC721-safeTransferFrom}."
      },
      "setApprovalForAll(address,bool)": {
        "details": "See {IERC721-setApprovalForAll}."
      },
      "supportsInterface(bytes4)": {
        "details": "See {IERC165-supportsInterface}."
      },
      "symbol()": {
        "details": "See {IERC721Metadata-symbol}."
      },
      "tokenURI(uint256)": {
        "details": "See {IERC721Metadata-tokenURI}."
      },
      "transferFrom(address,address,uint256)": {
        "details": "See {IERC721-transferFrom}."
      }
    },
    "version": 1
  },
  "userdoc": {
    "kind": "user",
    "methods": {},
    "version": 1
  }
}