{
  "contractName": "Marketplace",
  "abi": [
    {
      "inputs": [],
      "name": "listing_count",
      "outputs": [
        {
          "internalType": "uint256",
          "name": "",
          "type": "uint256"
        }
      ],
      "stateMutability": "view",
      "type": "function",
      "constant": true
    },
    {
      "inputs": [
        {
          "internalType": "uint256",
          "name": "",
          "type": "uint256"
        }
      ],
      "name": "listings",
      "outputs": [
        {
          "internalType": "address",
          "name": "owner",
          "type": "address"
        },
        {
          "internalType": "bool",
          "name": "is_active",
          "type": "bool"
        },
        {
          "internalType": "uint256",
          "name": "token_id",
          "type": "uint256"
        },
        {
          "internalType": "uint256",
          "name": "price",
          "type": "uint256"
        },
        {
          "internalType": "uint256",
          "name": "listing_id",
          "type": "uint256"
        }
      ],
      "stateMutability": "view",
      "type": "function",
      "constant": true
    },
    {
      "inputs": [
        {
          "internalType": "uint256",
          "name": "token_id",
          "type": "uint256"
        },
        {
          "internalType": "uint256",
          "name": "price",
          "type": "uint256"
        }
      ],
      "name": "addListing",
      "outputs": [],
      "stateMutability": "nonpayable",
      "type": "function"
    },
    {
      "inputs": [
        {
          "internalType": "uint256",
          "name": "listing_id",
          "type": "uint256"
        }
      ],
      "name": "removeListing",
      "outputs": [],
      "stateMutability": "nonpayable",
      "type": "function"
    },
    {
      "inputs": [
        {
          "internalType": "uint256",
          "name": "listing_id",
          "type": "uint256"
        }
      ],
      "name": "buy",
      "outputs": [],
      "stateMutability": "payable",
      "type": "function",
      "payable": true
    },
    {
      "inputs": [
        {
          "internalType": "uint256",
          "name": "index",
          "type": "uint256"
        }
      ],
      "name": "getActiveListings",
      "outputs": [
        {
          "internalType": "uint256",
          "name": "",
          "type": "uint256"
        }
      ],
      "stateMutability": "view",
      "type": "function",
      "constant": true
    },
    {
      "inputs": [
        {
          "internalType": "address",
          "name": "owner",
          "type": "address"
        },
        {
          "internalType": "uint256",
          "name": "index",
          "type": "uint256"
        }
      ],
      "name": "getListingsByOwner",
      "outputs": [
        {
          "internalType": "uint256",
          "name": "",
          "type": "uint256"
        }
      ],
      "stateMutability": "view",
      "type": "function",
      "constant": true
    },
    {
      "inputs": [
        {
          "internalType": "address",
          "name": "owner",
          "type": "address"
        }
      ],
      "name": "getListingsByOwnerCount",
      "outputs": [
        {
          "internalType": "uint256",
          "name": "",
          "type": "uint256"
        }
      ],
      "stateMutability": "view",
      "type": "function",
      "constant": true
    },
    {
      "inputs": [],
      "name": "getActiveListingsCount",
      "outputs": [
        {
          "internalType": "uint256",
          "name": "",
          "type": "uint256"
        }
      ],
      "stateMutability": "view",
      "type": "function",
      "constant": true
    }
  ],
  "bytecode": "0x6080604052600060015573bd9cd50fc0183b2512385a73429e3b5e9fc39c87600360006101000a81548173ffffffffffffffffffffffffffffffffffffffff021916908373ffffffffffffffffffffffffffffffffffffffff16021790555034801561006a57600080fd5b506001600081905550611212806100826000396000f3fe6080604052600436106100865760003560e01c8063836cf6e911610059578063836cf6e914610147578063a4dae28614610170578063d96a094a146101ad578063de74e57b146101c9578063e69875011461020a57610086565b8063479ad4c31461008b5780635dcd4015146100b45780637b55927c146100df5780637c499bfa1461010a575b600080fd5b34801561009757600080fd5b506100b260048036038101906100ad9190610c85565b610247565b005b3480156100c057600080fd5b506100c961047d565b6040516100d69190610cc1565b60405180910390f35b3480156100eb57600080fd5b506100f4610483565b6040516101019190610cc1565b60405180910390f35b34801561011657600080fd5b50610131600480360381019061012c9190610d3a565b6104e7565b60405161013e9190610cc1565b60405180910390f35b34801561015357600080fd5b5061016e60048036038101906101699190610d7a565b6105cf565b005b34801561017c57600080fd5b5061019760048036038101906101929190610dba565b6107b4565b6040516101a49190610cc1565b60405180910390f35b6101c760048036038101906101c29190610c85565b610887565b005b3480156101d557600080fd5b506101f060048036038101906101eb9190610c85565b610b57565b604051610201959493929190610e11565b60405180910390f35b34801561021657600080fd5b50610231600480360381019061022c9190610c85565b610bba565b60405161023e9190610cc1565b60405180910390f35b6002600054141561028d576040517f08c379a000000000000000000000000000000000000000000000000000000000815260040161028490610ec1565b60405180910390fd5b60026000819055503373ffffffffffffffffffffffffffffffffffffffff166002600083815260200190815260200160002060000160009054906101000a900473ffffffffffffffffffffffffffffffffffffffff1673ffffffffffffffffffffffffffffffffffffffff1614610339576040517f08c379a000000000000000000000000000000000000000000000000000000000815260040161033090610f2d565b60405180910390fd5b6002600082815260200190815260200160002060000160149054906101000a900460ff1661039c576040517f08c379a000000000000000000000000000000000000000000000000000000000815260040161039390610f99565b60405180910390fd5b60006002600083815260200190815260200160002060000160146101000a81548160ff021916908315150217905550600360009054906101000a900473ffffffffffffffffffffffffffffffffffffffff1673ffffffffffffffffffffffffffffffffffffffff166323b872dd303360026000868152602001908152602001600020600101546040518463ffffffff1660e01b815260040161044093929190610fb9565b600060405180830381600087803b15801561045a57600080fd5b505af115801561046e573d6000803e3d6000fd5b50505050600160008190555050565b60015481565b60008060005b6001548110156104df576002600082815260200190815260200160002060000160149054906101000a900460ff16156104cc576001826104c9919061101f565b91505b80806104d790611075565b915050610489565b508091505090565b60008060005b6001548110156105c2576002600082815260200190815260200160002060000160149054906101000a900460ff16801561058857508473ffffffffffffffffffffffffffffffffffffffff166002600083815260200190815260200160002060000160009054906101000a900473ffffffffffffffffffffffffffffffffffffffff1673ffffffffffffffffffffffffffffffffffffffff16145b156105af578184141561059f5780925050506105c9565b6001826105ac919061101f565b91505b80806105ba90611075565b9150506104ed565b5060009150505b92915050565b60026000541415610615576040517f08c379a000000000000000000000000000000000000000000000000000000000815260040161060c90610ec1565b60405180910390fd5b60026000819055506040518060a001604052803373ffffffffffffffffffffffffffffffffffffffff16815260200160011515815260200183815260200182815260200160015481525060026000600154815260200190815260200160002060008201518160000160006101000a81548173ffffffffffffffffffffffffffffffffffffffff021916908373ffffffffffffffffffffffffffffffffffffffff16021790555060208201518160000160146101000a81548160ff02191690831515021790555060408201518160010155606082015181600201556080820151816003015590505061071160018054610c3490919063ffffffff16565b600181905550600360009054906101000a900473ffffffffffffffffffffffffffffffffffffffff1673ffffffffffffffffffffffffffffffffffffffff166323b872dd3330856040518463ffffffff1660e01b815260040161077693929190610fb9565b600060405180830381600087803b15801561079057600080fd5b505af11580156107a4573d6000803e3d6000fd5b5050505060016000819055505050565b60008060005b60015481101561087d576002600082815260200190815260200160002060000160149054906101000a900460ff16801561085557508373ffffffffffffffffffffffffffffffffffffffff166002600083815260200190815260200160002060000160009054906101000a900473ffffffffffffffffffffffffffffffffffffffff1673ffffffffffffffffffffffffffffffffffffffff16145b1561086a57600182610867919061101f565b91505b808061087590611075565b9150506107ba565b5080915050919050565b600260005414156108cd576040517f08c379a00000000000000000000000000000000000000000000000000000000081526004016108c490610ec1565b60405180910390fd5b60026000819055506002600082815260200190815260200160002060000160149054906101000a900460ff16610938576040517f08c379a000000000000000000000000000000000000000000000000000000000815260040161092f90610f99565b60405180910390fd5b34600260008381526020019081526020016000206002015414610990576040517f08c379a00000000000000000000000000000000000000000000000000000000081526004016109879061110a565b60405180910390fd5b60006002600083815260200190815260200160002060000160146101000a81548160ff021916908315150217905550600360009054906101000a900473ffffffffffffffffffffffffffffffffffffffff1673ffffffffffffffffffffffffffffffffffffffff166323b872dd303360026000868152602001908152602001600020600101546040518463ffffffff1660e01b8152600401610a3493929190610fb9565b600060405180830381600087803b158015610a4e57600080fd5b505af1158015610a62573d6000803e3d6000fd5b505050506000806002600084815260200190815260200160002060000160009054906101000a900473ffffffffffffffffffffffffffffffffffffffff1673ffffffffffffffffffffffffffffffffffffffff1634604051610ac39061115b565b60006040518083038185875af1925050503d8060008114610b00576040519150601f19603f3d011682016040523d82523d6000602084013e610b05565b606091505b509150915081610b4a576040517f08c379a0000000000000000000000000000000000000000000000000000000008152600401610b41906111bc565b60405180910390fd5b5050600160008190555050565b60026020528060005260406000206000915090508060000160009054906101000a900473ffffffffffffffffffffffffffffffffffffffff16908060000160149054906101000a900460ff16908060010154908060020154908060030154905085565b60008060005b600154811015610c28576002600082815260200190815260200160002060000160149054906101000a900460ff1615610c155781841415610c05578092505050610c2f565b600182610c12919061101f565b91505b8080610c2090611075565b915050610bc0565b5060009150505b919050565b60008183610c42919061101f565b905092915050565b600080fd5b6000819050919050565b610c6281610c4f565b8114610c6d57600080fd5b50565b600081359050610c7f81610c59565b92915050565b600060208284031215610c9b57610c9a610c4a565b5b6000610ca984828501610c70565b91505092915050565b610cbb81610c4f565b82525050565b6000602082019050610cd66000830184610cb2565b92915050565b600073ffffffffffffffffffffffffffffffffffffffff82169050919050565b6000610d0782610cdc565b9050919050565b610d1781610cfc565b8114610d2257600080fd5b50565b600081359050610d3481610d0e565b92915050565b60008060408385031215610d5157610d50610c4a565b5b6000610d5f85828601610d25565b9250506020610d7085828601610c70565b9150509250929050565b60008060408385031215610d9157610d90610c4a565b5b6000610d9f85828601610c70565b9250506020610db085828601610c70565b9150509250929050565b600060208284031215610dd057610dcf610c4a565b5b6000610dde84828501610d25565b91505092915050565b610df081610cfc565b82525050565b60008115159050919050565b610e0b81610df6565b82525050565b600060a082019050610e266000830188610de7565b610e336020830187610e02565b610e406040830186610cb2565b610e4d6060830185610cb2565b610e5a6080830184610cb2565b9695505050505050565b600082825260208201905092915050565b7f5265656e7472616e637947756172643a207265656e7472616e742063616c6c00600082015250565b6000610eab601f83610e64565b9150610eb682610e75565b602082019050919050565b60006020820190508181036000830152610eda81610e9e565b9050919050565b7f4d757374206265206f776e657200000000000000000000000000000000000000600082015250565b6000610f17600d83610e64565b9150610f2282610ee1565b602082019050919050565b60006020820190508181036000830152610f4681610f0a565b9050919050565b7f4d75737420626520616374697665000000000000000000000000000000000000600082015250565b6000610f83600e83610e64565b9150610f8e82610f4d565b602082019050919050565b60006020820190508181036000830152610fb281610f76565b9050919050565b6000606082019050610fce6000830186610de7565b610fdb6020830185610de7565b610fe86040830184610cb2565b949350505050565b7f4e487b7100000000000000000000000000000000000000000000000000000000600052601160045260246000fd5b600061102a82610c4f565b915061103583610c4f565b9250827fffffffffffffffffffffffffffffffffffffffffffffffffffffffffffffffff0382111561106a57611069610ff0565b5b828201905092915050565b600061108082610c4f565b91507fffffffffffffffffffffffffffffffffffffffffffffffffffffffffffffffff8214156110b3576110b2610ff0565b5b600182019050919050565b7f4d75737420706179207468652070726963650000000000000000000000000000600082015250565b60006110f4601283610e64565b91506110ff826110be565b602082019050919050565b60006020820190508181036000830152611123816110e7565b9050919050565b600081905092915050565b50565b600061114560008361112a565b915061115082611135565b600082019050919050565b600061116682611138565b9150819050919050565b7f4661696c656420746f2073656e64204574686572000000000000000000000000600082015250565b60006111a6601483610e64565b91506111b182611170565b602082019050919050565b600060208201905081810360008301526111d581611199565b905091905056fea2646970667358221220c41aa39cdf35626d479fc787d11c559967a524458560fa3d316f0af0a3bb078c64736f6c634300080a0033",
  "immutableReferences": {},
  "source": "// SPDX-License-Identifier: MIT\npragma solidity 0.8.10;\n\nimport \"@openzeppelin/contracts/token/ERC721/ERC721.sol\";\nimport \"@openzeppelin/contracts/utils/math/SafeMath.sol\";\nimport \"@openzeppelin/contracts/security/ReentrancyGuard.sol\";\n\nstruct Listing {\n    address owner;\n    bool is_active;\n    uint256 token_id;\n    uint256 price;\n    uint256 listing_id;\n}\n\ncontract Marketplace is ReentrancyGuard {\n    using SafeMath for uint256;\n\n    address internal constant NFT_INDEX_CONTRACT =\n        0xBD9cd50fc0183B2512385A73429e3B5e9fC39C87;\n    uint256 public listing_count = 0;\n    mapping(uint256 => Listing) public listings;\n    ERC721 token_contract = ERC721(NFT_INDEX_CONTRACT);\n\n    function addListing(uint256 token_id, uint256 price) public nonReentrant {\n        listings[listing_count] = Listing(\n            msg.sender,\n            true,\n            token_id,\n            price,\n            listing_count\n        );\n        listing_count = listing_count.add(1);\n        token_contract.transferFrom(msg.sender, address(this), token_id);\n    }\n\n    function removeListing(uint256 listing_id) public nonReentrant {\n        require(listings[listing_id].owner == msg.sender, \"Must be owner\");\n        require(listings[listing_id].is_active, \"Must be active\");\n        listings[listing_id].is_active = false;\n        token_contract.transferFrom(\n            address(this),\n            msg.sender,\n            listings[listing_id].token_id\n        );\n    }\n\n    function buy(uint256 listing_id) public payable nonReentrant {\n        require(listings[listing_id].is_active, \"Must be active\");\n        require(listings[listing_id].price == msg.value, \"Must pay the price\");\n        listings[listing_id].is_active = false;\n        token_contract.transferFrom(\n            address(this),\n            msg.sender,\n            listings[listing_id].token_id\n        );\n        (bool sent, bytes memory data) = address(listings[listing_id].owner)\n            .call{value: msg.value}(\"\");\n        data;\n        require(sent, \"Failed to send Ether\");\n    }\n\n    function getActiveListings(uint256 index) public view returns (uint256) {\n        uint256 j;\n        for (uint256 i = 0; i < listing_count; i++) {\n            if (listings[i].is_active) {\n                if (index == j) {\n                    return i;\n                }\n                j += 1;\n            }\n        }\n        return 0;\n    }\n\n    function getListingsByOwner(address owner, uint256 index)\n        public\n        view\n        returns (uint256)\n    {\n        uint256 j;\n        for (uint256 i = 0; i < listing_count; i++) {\n            if (listings[i].is_active && listings[i].owner == owner) {\n                if (index == j) {\n                    return i;\n                }\n                j += 1;\n            }\n        }\n        return 0;\n    }\n\n    function getListingsByOwnerCount(address owner)\n        public\n        view\n        returns (uint256)\n    {\n        uint256 result;\n        for (uint256 i = 0; i < listing_count; i++) {\n            if (listings[i].is_active && listings[i].owner == owner) {\n                result += 1;\n            }\n        }\n        return result;\n    }\n\n    function getActiveListingsCount() public view returns (uint256) {\n        uint256 result;\n        for (uint256 i = 0; i < listing_count; i++) {\n            if (listings[i].is_active) {\n                result += 1;\n            }\n        }\n        return result;\n    }\n}\n",
  "sourcePath": "/Users/javiermolinas/Desktop/develop/crypto-index/Dapp-Crypto-Index/smart-contracts/contracts/Marketplace.sol",
  "compiler": {
    "name": "solc",
    "version": "0.8.10+commit.fc410830.Emscripten.clang"
  },
  "schemaVersion": "3.4.4",
  "updatedAt": "2022-01-11T00:50:18.741Z",
  "networkType": "ethereum",
  "devdoc": {
    "kind": "dev",
    "methods": {},
    "version": 1
  },
  "userdoc": {
    "kind": "user",
    "methods": {},
    "version": 1
  }
}