{
  "contractName": "Router",
  "abi": [
    {
      "inputs": [
        {
          "internalType": "uint256",
          "name": "amountIn",
          "type": "uint256"
        },
        {
          "internalType": "uint256",
          "name": "amountOutMin",
          "type": "uint256"
        },
        {
          "internalType": "address[]",
          "name": "path",
          "type": "address[]"
        },
        {
          "internalType": "address",
          "name": "to",
          "type": "address"
        },
        {
          "internalType": "uint256",
          "name": "deadline",
          "type": "uint256"
        }
      ],
      "name": "swapExactTokensForTokens",
      "outputs": [
        {
          "internalType": "uint256[]",
          "name": "amounts",
          "type": "uint256[]"
        }
      ],
      "stateMutability": "nonpayable",
      "type": "function"
    },
    {
      "inputs": [],
      "name": "WETH",
      "outputs": [
        {
          "internalType": "address",
          "name": "",
          "type": "address"
        }
      ],
      "stateMutability": "pure",
      "type": "function"
    }
  ],
  "bytecode": "0x608060405234801561001057600080fd5b50610377806100206000396000f3fe608060405234801561001057600080fd5b50600436106100365760003560e01c806338ed17391461003b578063ad5c46481461006b575b600080fd5b6100556004803603810190610050919061019d565b610089565b60405161006291906102f5565b60405180910390f35b610073610095565b6040516100809190610326565b60405180910390f35b60609695505050505050565b600090565b600080fd5b600080fd5b6000819050919050565b6100b7816100a4565b81146100c257600080fd5b50565b6000813590506100d4816100ae565b92915050565b600080fd5b600080fd5b600080fd5b60008083601f8401126100ff576100fe6100da565b5b8235905067ffffffffffffffff81111561011c5761011b6100df565b5b602083019150836020820283011115610138576101376100e4565b5b9250929050565b600073ffffffffffffffffffffffffffffffffffffffff82169050919050565b600061016a8261013f565b9050919050565b61017a8161015f565b811461018557600080fd5b50565b60008135905061019781610171565b92915050565b60008060008060008060a087890312156101ba576101b961009a565b5b60006101c889828a016100c5565b96505060206101d989828a016100c5565b955050604087013567ffffffffffffffff8111156101fa576101f961009f565b5b61020689828a016100e9565b9450945050606061021989828a01610188565b925050608061022a89828a016100c5565b9150509295509295509295565b600081519050919050565b600082825260208201905092915050565b6000819050602082019050919050565b61026c816100a4565b82525050565b600061027e8383610263565b60208301905092915050565b6000602082019050919050565b60006102a282610237565b6102ac8185610242565b93506102b783610253565b8060005b838110156102e85781516102cf8882610272565b97506102da8361028a565b9250506001810190506102bb565b5085935050505092915050565b6000602082019050818103600083015261030f8184610297565b905092915050565b6103208161015f565b82525050565b600060208201905061033b6000830184610317565b9291505056fea2646970667358221220c6ecb0e079249ea737f59281cb8dc43f6a7f5b28983cabe0c741f6b6d3a05bd664736f6c634300080a0033",
  "immutableReferences": {},
  "source": "// SPDX-License-Identifier: MIT\npragma solidity 0.8.10;\n\ncontract Router {\n  function swapExactTokensForTokens(\n    uint amountIn,\n    uint amountOutMin,\n    address[] calldata path,\n    address to,\n    uint deadline\n ) external returns (uint[] memory amounts) {}\n\n function WETH() external pure returns (address) {}\n}",
  "sourcePath": "/Users/javiermolinas/Desktop/develop/crypto-index/Dapp-Crypto-Index/smart-contracts/contracts/Router.sol",
  "compiler": {
    "name": "solc",
    "version": "0.8.10+commit.fc410830.Emscripten.clang"
  },
  "schemaVersion": "3.4.4",
  "updatedAt": "2022-01-11T00:47:28.029Z",
  "devdoc": {
    "kind": "dev",
    "methods": {},
    "version": 1
  },
  "userdoc": {
    "kind": "user",
    "methods": {},
    "version": 1
  }
}